S01200004A7631625F6552544F532E73726563B3
S11300000C943E000C945B000C945B000C944D0427
S11300100C945B000C945B000C945B000C945B00F0
S11300200C945B000C945B000C945B000C94F40A3D
S11300300C945B000C945B000C945B000C945B00D0
S11300400C945B000C945B000C946B050C94B00551
S11300500C945B000C945B000C945B000C945B00B0
S11300600C945B000C945B00751B751B751BCE1BFD
S1130070AD1BC71B751B751BCE1BAD1B11241FBEEF
S1130080CFEFD8E0DEBFCDBF11E0A0E0B1E0E6E7FE
S1130090F4E402C005900D92A633B107D9F727E026
S11300A0A6E3B1E001C01D92A637B207E1F70E94B2
S11300B001060C9439220C940000AF92BF92CF92A7
S11300C0DF92EF92FF920F93CF93DF931F92CDB7FE
S11300D0DEB78983A12CB12CC12CD12C0F2EF3E3D4
S11300E0EF2EF7E0FF2EF02D098120E030E04AEA00
S11300F050E069E071E08AE890E00E942E100F90D1
S1130100DF91CF910F91FF90EF90DF90CF90BF9050
S1130110AF900895CF93DF9300D000D0CDB7DEB772
S11301209C838B830E9464139A838983809135070F
S113013090913607BC01CE0101960E94141182E011
S11301400E94F71CF3CF0F931F93CF93DF93CDB788
S1130150DEB788E290E027E0FC0120838091010172
S1130160882F90E0AA2797FDA095BA2FBC01CD0156
S11301700E94EE20DC01CB0120E030E84BE355E4A3
S1130180BC01CD010E945820DC01CB0180933B07C8
S113019090933C07A0933D07B0933E0780913B07A3
S11301A090913C07A0913D07B0913E07809345078D
S11301B090934607A0934707B09348070E94AB0368
S11301C043E060E081E00E94890B90934D078093A7
S11301D04C0709EB13E021E030E041E068EE73E006
S11301E08BE091E00E94ED189093420780934107C1
S11301F010924A07109249078AE290E02AE230E01E
S1130200F90120812860FC01208380EB90E023E247
S1130210FC01208381EB90E022E0FC01208384EB4D
S113022090E0FC01108288E690E028E630E0F901D5
S113023020812160FC0120838BE690E02BE630E0F6
S1130240F90120812760FC012083DF91CF911F9168
S11302500F910895AF92BF92CF92DF92EF92FF92E7
S11302600F93CF93DF931F92CDB7DEB78983898134
S11302708F5FA12CB12CC12CD12C0F2EFFE3EF2EBC
S1130280F7E0FF2EF02D082F20E030E04AEA50E09E
S113029061E171E08EE691E00E942E10A12CB12C58
S11302A0C12CD12C0F2EF3E4EF2EF7E0FF2EF02D0E
S11302B0098120E030E04AEA50E063E171E08FE038
S11302C092E00E942E100F90DF91CF910F91FF903A
S11302D0EF90DF90CF90BF90AF9008950F931F934E
S11302E0CF93DF9300D01F92CDB7DEB79B838A8371
S11302F080914C0790914D0720E04FEF5FEF60E055
S113030070E00E94070D882309F488C089E290E018
S1130310FC018081807A898380910801823581F093
S113032080910801823761F080910801833741F0A0
S113033080910801853421F080910801833569F5A5
S11303408981882F90E080729927009731F18091FC
S11303503601882389F088E290E023E230E0F90155
S11303602081222F30E027703327225D3E4FF90190
S11303702081FC01208352C088E290E023E230E037
S1130380F9012081222F30E0277033272A5D3E4F68
S1130390F9012081FC01208341C0809108018E3441
S11303A051F488E290E027E0FC01208384EB90E0A4
S11303B0FC01108233C00FB6F8940F92809143076A
S11303C0909144070E948D118EE48093080188E285
S11303D090E027E0FC01208380914107909142073F
S11303E00E94B21C813069F48091410790914207C8
S11303F004E610E020E030E040E050E063E00E94DA
S1130400481984EB90E0FC01108283E391E090931F
S11304103607809335070F900FBE6ACF69CFCF920E
S1130420DF92EF92FF920F931F93CF93DF9300D04D
S113043000D000D0CDB7DEB79E838D8381E090E0FD
S11304409A83898380E090E00E948D110E94641356
S11304509C838B8380910801823729F08091080165
S1130460833509F0FBC084EB90E0FC01908180911E
S11304700101981708F072C084EB90E0FC018081C0
S1130480882F90E0AA2797FDA095BA2FBC01CD0133
S11304900E94EE20DC01CB0120E030E04FE753E482
S11304A0BC01CD010E94542088230CF057C084EB7A
S11304B090E0FC01908180914B07981709F04EC0A1
S11304C004EB10E080914B07882F90E0AA2797FD5A
S11304D0A095BA2FBC01CD010E94EE206B017C01D6
S11304E08091490790914A07CC01A0E0B0E0BC019B
S11304F0CD010E94EC20DC01CB0120913B0730911F
S11305003C0740913D0750913E07BC01CD010E943C
S11305109E21DC01CB019C01AD01C701B6010E9403
S1130520F01FDC01CB01BC01CD010E94C020DC0125
S1130530CB01F801808380914C0790914D0720E016
S113054040E050E060E070E00E94EA0B29813A81CB
S1130550CE010396B9010E9414117FC084EB90E090
S1130560FC01908180910101981708F05EC084EB32
S113057090E0FC018081882F90E0AA2797FDA09548
S1130580BA2FBC01CD010E94EE20DC01CB0120E09A
S113059030E04FE753E4BC01CD010E94542088238E
S11305A00CF043C004EB10E080914B07882F90E0DF
S11305B0AA2797FDA095BA2FBC01CD010E94EE2079
S11305C06B017C018091490790914A07CC01A0E01E
S11305D0B0E0BC01CD010E94EC20DC01CB012091F4
S11305E03B0730913C0740913D0750913E07BC01C9
S11305F0CD010E949E21DC01CB019C01AD01C7010C
S1130600B6010E94F01FDC01CB01BC01CD010E94A8
S1130610C020DC01CB01F801808329813A81CE011D
S11306200396B9010E94141118C082E58093080151
S1130630109237010E946413AC018091410790919C
S1130640420704E610E020E030E061E00E9448192F
S113065080E090E00E948D117DC07CC080910801F3
S1130660833729F080910801853409F073C084EB45
S113067090E0FC018081882F90E0AA2797FDA09547
S1130680BA2FBC01CD010E94EE20DC01CB0120E099
S113069030E0A901BC01CD010E9454208823E9F473
S11306A08EE48093080180914107909142070E9453
S11306B0B21C813069F4809141079091420704E6AD
S11306C010E020E030E040E050E063E00E94481990
S11306D080E090E00E948D113DC004EB10E0C090DA
S11306E03707D0903807E0903907F0903A078091A7
S11306F0490790914A07CC01A0E0B0E0BC01CD01CC
S11307000E94EC20DC01CB01209145073091460783
S11307104091470750914807BC01CD010E949E219A
S1130720DC01CB019C01AD01C701B6010E94EF1FA2
S1130730DC01CB01BC01CD010E94C020DC01CB0156
S1130740F801808329813A81CE010396B9010E9480
S1130750141180CE7FCECF93DF93CDB7DEB783E283
S113076090E0FC018081877080930001DF91CF913C
S11307700895CF92DF92EF92FF920F931F93CF933E
S1130780DF9300D0CDB7DEB79A83898380910501CA
S1130790882309F477C080910801823509F072C07A
S11307A0809137018F5F8093370190913701809159
S11307B00501981708F466C01092370183E7809307
S11307C0080180910101882F90E0A0E0B0E0BC0115
S11307D0CD010E94EC20DC01CB018093370790937C
S11307E03807A0933907B0933A0780910101882F05
S11307F090E0AA2797FDA095BA2FBC01CD010E94D5
S1130800EE206B017C0180910301882F90E0AA27E0
S113081097FDA095BA2FBC01CD010E94EE20DC010A
S1130820CB0120E030E048EC52E4BC01CD010E9451
S11308309E21DC01CB019C01AD01C701B6010E94E0
S11308405820DC01CB018093450790934607A09381
S11308504707B093480710924A07109249078091BE
S11308604307909144070E9422128091410790917E
S1130870420704E610E020E030E040E050E063E0AE
S11308800E9448190F900F90DF91CF911F910F9103
S1130890FF90EF90DF90CF9008951F920F920090F9
S11308A05F000F9211242F933F934F935F936F93A5
S11308B07F938F939F93AF93BF93EF93FF93CF93C4
S11308C0DF9300D0CDB7DEB71A8219828091080178
S11308D0882F90E021E08531920791F080914C07B8
S11308E090914D0720E0AE014F5F5F4F60E070E0F4
S11308F00E949C0C89819A81009711F00E94D8096A
S11309000F900F90DF91CF91FF91EF91BF91AF9135
S11309109F918F917F916F915F914F913F912F9113
S11309200F9000925F000F901F901895CF93DF9364
S1130930CDB7DEB72E970FB6F894DEBF0FBECDBF8E
S11309406E837F83888799874A870FB6F8940F92BE
S113095040E061E08A850E94890B9093510780935F
S1130960500740E061E08A850E94890B90934F070D
S113097080934E078E819F81A885B985880F991F22
S1130980AA1FBB1F880F991FAA1FBB1F880F991F7F
S1130990AA1FBB1F880F991FAA1FBB1F9C01AD0173
S11309A080E094E2A4EFB0E0BC01CD010E940122FA
S11309B0DA01C9010197A109B10989839A83AB833B
S11309C0BC8389818D8384EC90E02D81FC0120839C
S11309D089819A81AB81BC81892F9A2FAB2FBB2748
S11309E089839A83AB83BC8389818D8385EC90E072
S11309F02D81FC01208382EC90E026E0FC01208321
S1130A0081EC90E028E9FC0120830F900FBE80E088
S1130A1090E02E960FB6F894DEBF0FBECDBFDF91E7
S1130A20CF910895CF93DF9300D000D000D0CDB7FD
S1130A30DEB79A8389837C836B835E834D83809145
S1130A405007909151074D815E816B817C8120E03C
S1130A500E94070D882311F081E001C080E02696F2
S1130A600FB6F894DEBF0FBECDBFDF91CF910895CE
S1130A70CF93DF9300D000D000D0CDB7DEB79B83F7
S1130A808A836C835E834D8380914E0790914F07D8
S1130A904D815E81BE016C5F7F4F20E00E94EA0BB6
S1130AA0813011F080E00EC081EC90E0FC01808187
S1130AB0898389818062898381EC90E02981FC01AA
S1130AC0208381E026960FB6F894DEBF0FBECDBF1B
S1130AD0DF91CF9108951F920F9200905F000F92C3
S1130AE011242F933F934F935F936F937F938F932F
S1130AF09F93AF93BF93EF93FF93CF93DF9300D074
S1130B00CDB7DEB71A8286EC90E0FC018081898340
S1130B108091500790915107AE014E5F5F4F20E0E6
S1130B20BE016F5F7F4F0E949C0C8A81882311F065
S1130B300E94D8090F900F90DF91CF91FF91EF9110
S1130B40BF91AF919F918F917F916F915F914F91E1
S1130B503F912F910F9000925F000F901F90189576
S1130B601F920F9200905F000F9211242F933F93D6
S1130B704F935F936F937F938F939F93AF93BF93A1
S1130B80EF93FF93CF93DF9300D01F92CDB7DEB7DF
S1130B9080914E0790914F07AE014D5F5F4F9E01CC
S1130BA02E5F3F4FB9010E94D60D813031F486EC9F
S1130BB090E02A81FC0120830DC081EC90E0FC01CF
S1130BC08081898389818F7D898381EC90E029816B
S1130BD0FC0120830F900F900F90DF91CF91FF9134
S1130BE0EF91BF91AF919F918F917F916F915F91A1
S1130BF04F913F912F910F9000925F000F901F90A3
S1130C001895CF93DF93CDB7DEB70E94D71C0E940F
S1130C10A30084E395E0909336078093350781E041
S1130C200E945D0082E00E942A0124E140E855E22E
S1130C3060E070E081E00E942F1D0E94891280E034
S1130C4090E0DF91CF910895CF93DF93CDB7DEB7D6
S1130C508091490790914A07019690934A0780939F
S1130C604907DF91CF910895CF93DF9300D0CDB79B
S1130C70DEB79A83898389819A819C012D5F3F4FD6
S1130C8089819A81FC013283218389819A812FEFA2
S1130C903FEFFC013483238389819A819C012D5F7A
S1130CA03F4F89819A81FC013683258389819A810A
S1130CB09C012D5F3F4F89819A81FC0130872783F6
S1130CC089819A81FC0110820F900F90DF91CF915E
S1130CD00895CF93DF9300D0CDB7DEB79A8389838D
S1130CE089819A81FC01118610860F900F90DF9103
S1130CF0CF910895CF93DF9300D000D000D0CDB72B
S1130D00DEB79C838B837E836D838B819C81FC0106
S1130D10818192819A8389838D819E8129813A81FF
S1130D20FC013383228389819A81FC0124813581EA
S1130D308D819E81FC013583248389819A81FC0104
S1130D40848195812D813E81FC01338322838981B5
S1130D509A812D813E81FC01358324838D819E817E
S1130D602B813C81FC01318720878B819C81FC0194
S1130D70808121E0280F8B819C81FC0120832696B1
S1130D800FB6F894DEBF0FBECDBFDF91CF910895AB
S1130D90CF93DF93CDB7DEB728970FB6F894DEBFB5
S1130DA00FBECDBF9E838D8378876F838F81988597
S1130DB0FC01808191819C838B838B819C818F3FFB
S1130DC0FFEF9F0741F48D819E81FC01878190850F
S1130DD09A8389831AC08D819E8103969A8389831D
S1130DE007C089819A81FC01828193819A838983D6
S1130DF089819A81FC0182819381FC012081318166
S1130E008B819C818217930760F789819A81FC0109
S1130E10228133818F819885FC01338322838F81E2
S1130E209885FC01828193812F813885FC0135836B
S1130E3024838F81988529813A81FC013583248319
S1130E4089819A812F813885FC01338322838F81A4
S1130E5098852D813E81FC01318720878D819E817B
S1130E60FC01808121E0280F8D819E81FC0120837B
S1130E7028960FB6F894DEBF0FBECDBFDF91CF9199
S1130E800895CF93DF9300D000D0CDB7DEB79C8315
S1130E908B838B819C81FC01808591859A838983D6
S1130EA08B819C81FC01828193812B813C81F9019E
S1130EB024813581FC01358324838B819C81FC0151
S1130EC0848195812B813C81F90122813381FC014C
S1130ED03383228389819A81FC01218132818B8130
S1130EE09C812817390751F48B819C81FC01248152
S1130EF0358189819A81FC01328321838B819C8194
S1130F00FC011186108689819A81FC0180812FEF72
S1130F10280F89819A81FC01208389819A81FC01AF
S1130F2080810F900F900F900F90DF91CF910895D3
S1130F30CF93DF9300D000D0CDB7DEB79C838B83F3
S1130F401A8219820E94CA128091B2069091B30645
S1130F50009731F489E391E09093B3068093B2064D
S1130F602091B0063091B1068B819C81820F931F32
S1130F70873725E0920738F52091B0063091B10605
S1130F808B819C81280F391F8091B0069091B10606
S1130F9082179307C0F42091B2063091B306809172
S1130FA0B0069091B106820F931F9A838983209192
S1130FB0B0063091B1068B819C81820F931F909370
S1130FC0B1068093B0060E94D61289819A810F904F
S1130FD00F900F900F90DF91CF910895CF93DF93EF
S1130FE000D0CDB7DEB79A8389830F900F90DF913D
S1130FF0CF910895CF93DF93CDB7DEB728970FB67F
S1131000F894DEBF0FBECDBF9C838B837E836D833C
S113101058874F838B819C8121E1FC0120838B8144
S11310209C8101979C838B838B819C8122E2FC01B0
S113103020838B819C8101979C838B838B819C81F2
S113104023E3FC0120838B819C8101979C838B8308
S11310508D819E819A83898329818B819C81FC0166
S113106020838B819C8101979C838B8389819A81C6
S1131070892F99279A83898329818B819C81FC01FB
S113108020838B819C8101979C838B838B819C81A2
S1131090FC0110828B819C8101979C838B838B81C3
S11310A09C8120E8FC0120838B819C8101979C8397
S11310B08B838B819C81FC0110828B819C810197A5
S11310C09C838B838B819C8122E0FC0120838B8118
S11310D09C8101979C838B838B819C8123E0FC0101
S11310E020838B819C8101979C838B838B819C8142
S11310F024E0FC0120838B819C8101979C838B835A
S11311008B819C8125E0FC0120838B819C8101974C
S11311109C838B838B819C8126E0FC0120838B81C3
S11311209C8101979C838B838B819C8127E0FC01AC
S113113020838B819C8101979C838B838B819C81F1
S113114028E0FC0120838B819C8101979C838B8305
S11311508B819C8129E0FC0120838B819C810197F8
S11311609C838B838B819C8120E1FC0120838B8178
S11311709C8101979C838B838B819C8121E1FC0161
S113118020838B819C8101979C838B838B819C81A1
S113119022E1FC0120838B819C8101979C838B83BA
S11311A08B819C8123E1FC0120838B819C810197AD
S11311B09C838B838B819C8124E1FC0120838B8124
S11311C09C8101979C838B838B819C8125E1FC010D
S11311D020838B819C8101979C838B838B819C8151
S11311E026E1FC0120838B819C8101979C838B8366
S11311F08B819C8127E1FC0120838B819C81019759
S11312009C838B838B819C8128E1FC0120838B81CF
S11312109C8101979C838B838B819C8129E1FC01B8
S113122020838B819C8101979C838B838B819C8100
S113123020E2FC0120838B819C8101979C838B831A
S11312408B819C8121E2FC0120838B819C8101970D
S11312509C838B838B819C8122E2FC0120838B8184
S11312609C8101979C838B838B819C8123E2FC016D
S113127020838B819C8101979C838B838F819885AC
S11312809A83898329818B819C81FC0120838B81B2
S11312909C8101979C838B8389819A81892F9927CB
S11312A09A83898329818B819C81FC0120838B8192
S11312B09C8101979C838B838B819C8126E2FC011A
S11312C020838B819C8101979C838B838B819C8160
S11312D027E2FC0120838B819C8101979C838B8373
S11312E08B819C8128E2FC0120838B819C81019766
S11312F09C838B838B819C8129E2FC0120838B81DD
S11313009C8101979C838B838B819C8120E3FC01CE
S113131020838B819C8101979C838B838B819C810F
S113132021E3FC0120838B819C8101979C838B8327
S11313308B819C8128960FB6F894DEBF0FBECDBF7B
S1131340DF91CF910895CF93DF93CDB7DEB70E949D
S11313508E0AA091B406B091B506CD91CDBFDD91B2
S1131360DEBFFF91EF91DF91CF91BF91AF919F913C
S11313708F917F916F915F914F913F912F911F9129
S11313800F91FF90EF90DF90CF90BF90AF909F9020
S11313908F907F906F905F904F903F902F901F9011
S11313A00F900FBE0F90089581E0DF91CF910895C3
S11313B00F920FB6F8940F921F9211242F923F921E
S11313C04F925F926F927F928F929F92AF92BF9251
S11313D0CF92DF92EF92FF920F931F932F933F933D
S11313E04F935F936F937F938F939F93AF93BF9329
S11313F0CF93DF93EF93FF93A091B406B091B5061A
S11314000DB60D920EB60D920E947114A091B40601
S1131410B091B506CD91CDBFDD91DEBFFF91EF91C7
S1131420DF91CF91BF91AF919F918F917F916F91F8
S11314305F914F913F912F911F910F91FF90EF90EA
S1131440DF90CF90BF90AF909F908F907F906F90E0
S11314505F904F903F902F901F900F900FBE0F9072
S113146008950F920FB6F8940F921F9211242F92A1
S11314703F924F925F926F927F928F929F92AF9220
S1131480BF92CF92DF92EF92FF920F931F932F930D
S11314903F934F935F936F937F938F939F93AF93F8
S11314A0BF93CF93DF93EF93FF93A091B406B091D2
S11314B0B5060DB60D920EB60D920E947B138823CD
S11314C011F00E947114A091B406B091B506CD91AB
S11314D0CDBFDD91DEBFFF91EF91DF91CF91BF9141
S11314E0AF919F918F917F916F915F914F913F91B8
S11314F02F911F910F91FF90EF90DF90CF90BF90AD
S1131500AF909F908F907F906F905F904F903F909F
S11315102F901F900F900FBE0F900895CF93DF93DD
S1131520CDB7DEB72A970FB6F894DEBF0FBECDBF96
S113153080E990EDA3E0B0E089839A83AB83BC8318
S113154089819A81AB81BC8128EE33E040E050E090
S1131550BC01CD010E940122DA01C90189839A8369
S1131560AB83BC8389819A81AB81BC810197A1093A
S1131570B10989839A83AB83BC8389818D838981F3
S11315809A81AB81BC81892F9A2FAB2FBB2789838A
S11315909A83AB83BC8389818E8389E890E02E8112
S11315A0FC01208388E890E02D81FC0120838BE0FE
S11315B08D8381E890E02D81FC0120838FE690E00B
S11315C0FC0180818D838D8182608D838FE690E024
S11315D02D81FC0120832A960FB6F894DEBF0FBE3E
S11315E0CDBFDF91CF9108950E94310A1895CF9312
S11315F0DF9300D000D01F92CDB7DEB79C838B83DE
S11316006D838B819C819A8389830FB6F8940F92A2
S113161089819A81FC012081318189819A81FC012F
S1131620838D682F70E089819A81FC01848D482F15
S113163050E0649FC001659F900D749F900D11242C
S1131640280F391F89819A81FC0133832283898180
S11316509A81FC01128E89819A81FC012081318159
S113166089819A81FC013583248389819A81FC01D3
S11316702081318189819A81FC01838D882F90E0BA
S1131680BC016150710989819A81FC01848D482FC4
S113169050E0649FC001659F900D749F900D1124CC
S11316A0280F391F89819A81FC0137832683898118
S11316B09A812FEFFC01258F89819A812FEFFC01FC
S11316C0268F8D81882381F489819A81FC0180850C
S11316D08823A1F089819A8108960E945B15813044
S11316E069F40E94D8090AC089819A8108960E94E7
S11316F0340689819A8141960E9434060F900FBE68
S113170081E00F900F900F900F900F90DF91CF9189
S11317100895CF93DF93CDB7DEB729970FB6F8942A
S1131720DEBF0FBECDBF8F83688749871A821982B7
S11317308F81882309F443C08FE190E00E949807C9
S11317409C838B838B819C810097C9F18F81482F67
S113175050E08885282F30E0429FC001439F900DC0
S1131760529F900D112401969E838D838D819E81BD
S11317700E9498079C018B819C81FC01318320830A
S11317808B819C81FC01808191810097A1F08B81E8
S11317909C812F81FC01238F8B819C812885FC01F6
S11317A0248F8B819C8161E00E94F70A8B819C814C
S11317B09A83898304C08B819C810E94EE0789816E
S11317C09A8129960FB6F894DEBF0FBECDBFDF9184
S11317D0CF910895CF93DF93CDB7DEB72E970FB691
S11317E0F894DEBF0FBECDBF998788877B876A8751
S11317F05D874C872E871982888599859B838A8388
S11318000FB6F8940F928A819B81FC01228D8A8104
S11318109B81FC01838D281718F08E85823011F589
S11318202A853B858A819B814E85B9010E94370EAA
S11318308C838A819B81FC018189882351F08A8170
S11318409B8141960E945B15813041F40E94D80926
S113185005C08C81882311F00E94D8090F900FBE17
S113186081E061C08C859D85009721F40F900FBEA7
S113187080E059C08981882331F4CE0105960E9405
S1131880C81581E089830F900FBE0E94CA120FB65B
S1131890F8940F928A819B81FC01858D8F3F21F4FE
S11318A08A819B81FC01158E8A819B81FC01868D36
S11318B08F3F21F48A819B81FC01168E0F900FBE0D
S11318C09E01245F3F4FCE010596B9010E94E315A6
S11318D0882301F58A819B810E94C90F882399F08E
S11318E02C853D858A819B810896B9010E94E0146C
S11318F08A819B810E94470F0E94D612882391F40B
S11319000E94D8090FC08A819B810E94470F0E94C0
S1131910D61276CF8A819B810E94470F0E94D612ED
S113192080E001C06DCF2E960FB6F894DEBF0FBED7
S1131930CDBFDF91CF910895CF93DF93CDB7DEB7BD
S11319402B970FB6F894DEBF0FBECDBF9E838D8359
S113195078876F835A8749872B878D819E819B83E4
S11319608A831C828A819B81FC01228D8A819B81CE
S1131970FC01838D281718F08B858230E9F52F81BF
S113198038858A819B814B85B9010E94370E882353
S113199049F089859A85009729F089859A8521E0FF
S11319A0FC0120838A819B81FC01868D8F3FB9F4E1
S11319B08A819B81FC0181898823D9F08A819B815A
S11319C041960E945B158823A1F089859A8500972A
S11319D081F089859A8521E0FC0120830AC08A81EF
S11319E09B81FC01868D21E0280F8A819B81FC016B
S11319F0268F81E0898301C0198289812B960FB6D5
S1131A00F894DEBF0FBECDBFDF91CF910895CF9381
S1131A10DF93CDB7DEB72F970FB6F894DEBF0FBEB6
S1131A20CDBF9A8789877C876B875E874D872F8791
S1131A30198289859A859B838A830FB6F8940F92BD
S1131A408A819B81FC01828D882309F445C08A81A7
S1131A509B81FC01868197819D838C832B853C85AA
S1131A608A819B81B9010E94F70E8F858823D1F466
S1131A708A819B81FC01828D2FEF280F8A819B81B3
S1131A80FC01228F8A819B81FC018085882301F1DE
S1131A908A819B8108960E945B158130C9F40E945B
S1131AA0D80916C08A819B812C813D81FC01378332
S1131AB026838A819B81FC018189882349F08A815C
S1131AC09B8141960E945B15882311F00E94D809DE
S1131AD00F900FBE81E061C08D859E85009721F433
S1131AE00F900FBE80E059C08981882331F4CE0164
S1131AF006960E94C81581E089830F900FBE0E944C
S1131B00CA120FB6F8940F928A819B81FC01858DCD
S1131B108F3F21F48A819B81FC01158E8A819B81F0
S1131B20FC01868D8F3F21F48A819B81FC01168EF6
S1131B300F900FBE9E01235F3F4FCE010696B90161
S1131B400E94E315882301F58A819B810E94AB0FD3
S1131B50882399F02D853E858A819B814196B90120
S1131B600E94E0148A819B810E94470F0E94D61232
S1131B70882391F40E94D8090FC08A819B810E9416
S1131B80470F0E94D61259CF8A819B810E94470F2A
S1131B900E94D61280E001C050CF2F960FB6F89461
S1131BA0DEBF0FBECDBFDF91CF910895CF93DF93FA
S1131BB0CDB7DEB72A970FB6F894DEBF0FBECDBF00
S1131BC09E838D8378876F835A8749878D819E8111
S1131BD09B838A831C828A819B81FC01828D88235A
S1131BE0D9F12F8138858A819B81B9010E94F70E32
S1131BF08A819B81FC01828D2FEF280F8A819B8132
S1131C00FC01228F8A819B81FC01858D8F3FB9F471
S1131C108A819B81FC0180858823D9F08A819B81FC
S1131C2008960E945B158823A1F089859A85009700
S1131C3081F089859A8521E0FC0120830AC08A818C
S1131C409B81FC01858D21E0280F8A819B81FC0109
S1131C50258F81E0898301C0198289812A960FB674
S1131C60F894DEBF0FBECDBFDF91CF910895CF931F
S1131C70DF9300D000D000D0CDB7DEB79B838A833A
S1131C807D836C834E8319828A819B81FC01848DC0
S1131C90882309F498C08E818823D9F58A819B8191
S1131CA0FC01848D482F50E08A819B81FC01848152
S1131CB095812C813D81B9010E9429228A819B81D1
S1131CC0FC01248135818A819B81FC01848D882FCC
S1131CD090E0280F391F8A819B81FC01358324837E
S1131CE08A819B81FC01248135818A819B81FC014D
S1131CF0828193812817390708F465C08A819B8102
S1131D00FC01208131818A819B81FC0135832483FC
S1131D105AC08A819B81FC01848D482F50E08A81BE
S1131D209B81FC01868197812C813D81B9010E94B0
S1131D3029228A819B81FC01268137818A819B81AA
S1131D40FC01848D882F90E0919581959109280F4D
S1131D50391F8A819B81FC01378326838A819B8179
S1131D60FC01268137818A819B81FC0180819181DC
S1131D7028173907A8F48A819B81FC0122813381C9
S1131D808A819B81FC01848D882F90E091958195B7
S1131D909109280F391F8A819B81FC01378326838F
S1131DA08E81823081F48A819B81FC01828D88231B
S1131DB051F08A819B81FC01828D2FEF280F8A814B
S1131DC09B81FC01228F8A819B81FC01828D21E011
S1131DD0280F8A819B81FC01228F898126960FB668
S1131DE0F894DEBF0FBECDBFDF91CF910895CF939E
S1131DF0DF9300D000D0CDB7DEB79A8389837C838C
S1131E006B8389819A81FC01848D8823C9F189813E
S1131E109A81FC012681378189819A81FC01848D14
S1131E20882F90E0280F391F89819A81FC0137831C
S1131E30268389819A81FC012681378189819A814F
S1131E40FC01828193812817390750F089819A8196
S1131E50FC012081318189819A81FC0137832683A9
S1131E6089819A81FC01848D482F50E089819A816F
S1131E70FC01268137818B819C81B9010E94292232
S1131E800F900F900F900F90DF91CF910895CF9303
S1131E90DF9300D0CDB7DEB79A8389830FB6F89469
S1131EA00F921BC089819A81FC018189882351F09A
S1131EB089819A8141960E945B15882321F00E94B2
S1131EC0561601C010C089819A81FC01868D2FEFBE
S1131ED0280F89819A81FC01268F89819A81FC01CE
S1131EE0868D1816FCF289819A812FEFFC01268FCA
S1131EF00F900FBE0FB6F8940F921BC089819A8180
S1131F00FC0180858823A1F089819A8108960E942A
S1131F105B15882311F00E94561689819A81FC0171
S1131F20858D2FEF280F89819A81FC01258F01C0AF
S1131F3006C089819A81FC01858D1816FCF289817D
S1131F409A812FEFFC01258F0F900FBE0F900F90F9
S1131F50DF91CF910895CF93DF9300D01F92CDB737
S1131F60DEB79B838A830FB6F8940F928A819B8194
S1131F70FC01828D882319F481E0898301C01982D0
S1131F800F900FBE89810F900F900F90DF91CF912A
S1131F900895CF93DF9300D01F92CDB7DEB79B8314
S1131FA08A830FB6F8940F928A819B81FC01228D5B
S1131FB08A819B81FC01838D281719F481E0898330
S1131FC001C019820F900FBE89810F900F900F905E
S1131FD0DF91CF910895CF93DF9300D000D000D04C
S1131FE0CDB7DEB79C838B837E836D838B819C818D
S1131FF09A8389830FB6F8940F9289819A81FC01A0
S1132000858D8F3F21F489819A81FC01158E898108
S11320109A81FC01868D8F3F21F489819A81FC018C
S1132020168E0F900FBE89819A81FC01828D8823C0
S113203041F489819A8141962D813E81B9010E94A2
S1132040261589819A810E94470F26960FB6F89427
S1132050DEBF0FBECDBFDF91CF910895AF92BF9287
S1132060CF92DF92EF92FF920F931F93CF93DF9360
S1132070CDB7DEB764970FB6F894DEBF0FBECDBF01
S11320809F838E83798768875B874A873D872C8700
S11320900E87F88AEF86DA8AC98ABC8AAB8A2989CC
S11320A03A898A859B85B9010E94B4179B838A83E8
S11320B08A819B81009709F491C08A819B81FC01EC
S11320C02789308D8A859B850197820F931F9D8375
S11320D08C834A855B852B893C89688579858A81CF
S11320E09B818A014E850E9470164C855D852E81E8
S11320F03F818C819D81B9010E94FA079C018A81EC
S11321009B81FC01318320838F859889009739F066
S11321108F8598892A813B81FC01318320830FB606
S1132120F8940F9280910C078F5F80930C07809135
S1132130B4069091B506009769F48A819B819093C7
S1132140B5068093B40680910C078130B1F40E94E7
S1132150E91613C080911007882379F48091B4069E
S11321609091B506FC0196898E85891730F08A8195
S11321709B819093B5068093B406809114078F5F7A
S1132180809314078A819B81FC01968980910F07B3
S1132190891730F48A819B81FC01868980930F071B
S11321A08A819B81AC014E5F5F4F8A819B81FC01D8
S11321B08689282F30E0C901880F991F880F991F3D
S11321C0880F991F820F931F8A54994FBA010E9456
S11321D07A0681E089830F900FBE02C08FEF898356
S11321E08981813079F480911007882359F0809196
S11321F0B4069091B506FC0196898E85981710F463
S11322000E94D809898164960FB6F894DEBF0FBE88
S1132210CDBFDF91CF911F910F91FF90EF90DF9091
S1132220CF90BF90AF900895CF93DF93CDB7DEB733
S11322302A970FB6F894DEBF0FBECDBF98878F8361
S11322407A87698719820E94CA1280910D0790913A
S11322500E079B838A838F819885FC0120813181BD
S113226089859A85820F931F9D838C838F8198859E
S1132270FC01208131818A819B8182179307A0F41C
S11322808F819885FC01208131818C819D81821709
S11322909307E8F42C813D818A819B8182179307FF
S11322A0B0F481E0898313C08F819885FC0120817B
S11322B031818C819D818217930738F02C813D8177
S11322C08A819B818217930710F481E089838F812F
S11322D098852C813D81FC01318320838981882369
S11322E059F08091B4069091B50602960E94410778
S11322F08C819D810E946A170E94D6128E838E81E2
S1132300882311F40E94D8092A960FB6F894DEBFE8
S11323100FBECDBFDF91CF910895CF93DF9300D04F
S113232000D0CDB7DEB79C838B830FB6F8940F92A1
S11323308B819C81009729F48091B4069091B50615
S113234002C08B819C819A83898389819A810296B8
S11323500E94410789819A81FC01848995890097AB
S113236029F089819A810C960E94410789819A817A
S11323700296BC0183E097E00E947A060F900FBE9C
S11323808091B4069091B50629813A8128173907BE
S1132390A9F480911007882319F00E94D80919C064
S11323A09091030780910C07981729F41092B506B1
S11323B01092B4060EC00E9471140BC080911007D5
S11323C0882339F00FB6F8940F920E9473180F9077
S11323D00FBE0F900F900F900F90DF91CF91089543
S11323E0CF93DF9300D000D01F92CDB7DEB79D838B
S11323F08C8319828C819D819B838A838A819B81B2
S1132400FC0182859385F7E083309F0791F48A81EC
S11324109B81FC0184899589F6E0803F9F0749F000
S11324208A819B81FC0184899589009711F481E05C
S1132430898389810F900F900F900F900F90DF91F7
S1132440CF910895CF93DF9300D000D0CDB7DEB7FE
S11324509C838B838B819C819A83898389819A81D4
S1132460009709F44FC08091B4069091B506298174
S11324703A812817390709F445C00FB6F8940F922A
S113248089819A810E94F0118130D1F589819A81E4
S113249002960E94410789819A81FC019689809164
S11324A00F07891730F489819A81FC01868980930A
S11324B00F0789819A81AC014E5F5F4F89819A81B0
S11324C0FC018689282F30E0C901880F991F880FE5
S11324D0991F880F991F820F931F8A54994FBA012D
S11324E00E947A0689819A81FC0126898091B4062A
S11324F09091B506FC018689281710F00E94D8092E
S11325000F900FBE0F900F900F900F90DF91CF910F
S11325100895AF92BF92CF92DF92EF92FF920F9302
S1132520CF93DF931F92CDB7DEB7A12CB12CC12C72
S1132530D12CE12CF12C00E020E030E045E550E026
S113254067E171E080E696E10E942E10898389811B
S1132550813019F40E94BA1889838981813079F411
S1132560F89481E08093100710920E0710920D07E3
S11325700E94A309882319F081E0809310070F902B
S1132580DF91CF910F91FF90EF90DF90CF90BF90AC
S1132590AF900895CF93DF93CDB7DEB78091150741
S11325A08F5F80931507DF91CF910895CF93DF93C9
S11325B000D01F92CDB7DEB719820FB6F8940F92F0
S11325C08091150781508093150780911507882302
S11325D009F071C080910C07882309F46CC049C0CC
S11325E08091F5069091F606FC01868197819B8384
S11325F08A838A819B810C960E9441078A819B81F0
S113260002960E9441078A819B81FC0196898091F0
S11326100F07891730F48A819B81FC018689809396
S11326200F078A819B81AC014E5F5F4F8A819B813A
S1132630FC018689282F30E0C901880F991F880F73
S1132640991F880F991F820F931F8A54994FBA01BB
S11326500E947A068A819B81FC0126898091B406B6
S11326609091B506FC018689281718F081E08093C3
S113267012078091F006882309F0B2CF80911107E8
S1132680882389F00CC00E947B13882319F081E011
S113269080931207809111078150809311078091D4
S11326A01107882381F780911207813021F481E09A
S11326B089830E94D8090F900FBE89810F900F90D3
S11326C00F90DF91CF910895CF93DF9300D0CDB7D2
S11326D0DEB70FB6F8940F9280910D0790910E0714
S11326E09A8389830F900FBE89819A810F900F90EE
S11326F0DF91CF910895CF93DF93CDB7DEB72997BC
S11327000FB6F894DEBF0FBECDBF198280911507B6
S1132710882309F0CFC080910D0790910E07019690
S113272090930E0780930D0780910D0790910E07EB
S11327309B838A838A819B810097D9F48091EC06DC
S11327409091ED069D838C838091EE069091EF0627
S11327509093ED068093EC068C819D819093EF0617
S11327608093EE06809113078F5F809313070E9476
S1132770731880910601909107012A813B812817E3
S1132780390708F477C08091EC069091ED06FC01BE
S11327908081882339F48FEF9FEF90930701809312
S11327A0060168C08091EC069091ED06FC018581DC
S11327B09681FC01868197819F838E838E819F8180
S11327C0FC0182819381998788872A813B8188854E
S11327D099852817390738F48885998590930701D6
S11327E08093060147C08E819F8102960E94410713
S11327F08E819F81FC0184899589009729F08E81BF
S11328009F810C960E9441078E819F81FC019689CD
S113281080910F07891730F48E819F81FC0186898E
S113282080930F078E819F81AC014E5F5F4F8E8135
S11328309F81FC018689282F30E0C901880F991FE8
S1132840880F991F880F991F820F931F8A54994FDD
S1132850BA010E947A068E819F81FC0126898091AB
S1132860B4069091B506FC018689281710F081E022
S1132870898389CF8091B4069091B506FC0186893D
S1132880282F30E0C901880F991F880F991F880FDE
S1132890991F820F931F8A54994FFC0180818230C3
S11328A010F081E0898380911107882351F40E94FC
S11328B0240607C0809111078F5F809311070E943F
S11328C0240680911207882311F081E0898389818D
S11328D029960FB6F894DEBF0FBECDBFDF91CF911E
S11328E00895CF93DF9300D0CDB7DEB7809115075D
S11328F0882321F081E0809312075DC010921207B3
S113290005C080910F07815080930F0780910F07B6
S1132910282F30E0C901880F991F880F991F880F4D
S1132920991F820F931F8A54994FFC018081882339
S113293041F380910F07282F30E0C901880F991FB8
S1132940880F991F880F991F820F931F8A54994FDC
S11329509A83898389819A81FC0181819281FC0116
S11329602281338189819A81FC0132832183898187
S11329709A81FC012181328189819A8103962817E9
S1132980390769F489819A81FC0181819281FC0172
S11329902281338189819A81FC0132832183898157
S11329A09A81FC0181819281FC01868197819093B7
S11329B0B5068093B4060F900F90DF91CF910895E0
S11329C0CF93DF9300D000D000D0CDB7DEB79C8387
S11329D08B837E836D838091B4069091B5069C01B0
S11329E0245F3F4F8B819C81B9010E94C80680916E
S11329F0B4069091B50602960E9441078D819E818E
S1132A008F3F2FEF920759F48091B4069091B50649
S1132A100296BC0183E097E00E947A060EC02091E2
S1132A200D0730910E078D819E81820F931F9A832B
S1132A30898389819A810E946A1726960FB6F89431
S1132A40DEBF0FBECDBFDF91CF910895CF93DF934B
S1132A5000D000D000D0CDB7DEB79C838B837E83BB
S1132A606D838091B4069091B5069C01245F3F4F1D
S1132A708B819C81B9010E947A068091B406909161
S1132A80B50602960E94410720910D0730910E076A
S1132A908D819E81820F931F9A83898389819A8174
S1132AA00E946A1726960FB6F894DEBF0FBECDBFFC
S1132AB0DF91CF910895CF93DF9300D000D01F9280
S1132AC0CDB7DEB79D838C838C819D81FC0185818C
S1132AD09681FC01868197819B838A838A819B816D
S1132AE00C960E94410780911507882369F58A8115
S1132AF09B8102960E9441078A819B81FC019689F1
S1132B0080910F07891730F48A819B81FC018689A3
S1132B1080930F078A819B81AC014E5F5F4F8A814E
S1132B209B81FC018689282F30E0C901880F991FF9
S1132B30880F991F880F991F820F931F8A54994FEA
S1132B40BA010E947A0608C08A819B810C96BC0156
S1132B5080EF96E00E947A068A819B81FC01268997
S1132B608091B4069091B506FC018689821730F4F1
S1132B7081E0898381E08093120701C019828981F1
S1132B800F900F900F900F900F90DF91CF910895B9
S1132B90CF93DF9300D0CDB7DEB79A83898320919A
S1132BA0130789819A81FC01208320910D073091BC
S1132BB00E0789819A81FC01328321830F900F9043
S1132BC0DF91CF910895CF93DF93CDB7DEB72797E9
S1132BD00FB6F894DEBF0FBECDBF9D838C837F8379
S1132BE06E830FB6F8940F9280910D0790910E07A3
S1132BF09B838A838E819F81FC01808191818F3F99
S1132C00FFEF9F0711F4198245C08C819D81FC015F
S1132C10908180911307981769F08C819D81FC0144
S1132C20218132818A819B818217930718F081E088
S1132C30898330C08C819D81FC01818192812A81AC
S1132C403B81281B390B8E819F81FC0180819181FE
S1132C5028173907E8F48E819F81FC012081318196
S1132C608C819D81FC01418152818A819B81BA01C1
S1132C70681B790BCB01280F391F8E819F81FC01C2
S1132C80318320838C819D810E94C815198202C0E2
S1132C9081E089830F900FBE898127960FB6F8943F
S1132CA0DEBF0FBECDBFDF91CF910895CF93DF93E9
S1132CB0CDB7DEB781E080931207DF91CF910895FD
S1132CC0CF93DF9300D0CDB7DEB79A8389830E9478
S1132CD02A178091B606823010F00E94D809F7CFE7
S1132CE00F931F93CF93DF93CDB7DEB72A970FB619
S1132CF0F894DEBF0FBECDBF9B838A837D836C8334
S1132D004E8338872F831A870987198222C08981C5
S1132D10882F90E02981222F30E04C815D81240F9F
S1132D20351FF90140812A813B81820F931F499607
S1132D30FC0140838981882F90E02C813D81820FA2
S1132D40931FFC018081882309F406C089818F5F69
S1132D50898389818430D8F28A819B81FC01148E15
S1132D608E81843010F083E08E838A819B812E8152
S1132D70FC01268B8A819B8102960E9469068A81C6
S1132D809B810C960E9469068A819B812A813B81E2
S1132D90FC01318720878E81882F90E024E030E089
S1132DA0281B390B8A819B81FC01358724878A8102
S1132DB09B812A813B81FC01338B228B2A960FB69F
S1132DC0F894DEBF0FBECDBFDF91CF911F910F915D
S1132DD00895CF93DF931F92CDB7DEB7198213C046
S1132DE08981282F30E0C901880F991F880F991F06
S1132DF0880F991F820F931F8A54994F0E9434069B
S1132E0089818F5F89838981843050F38AED96E0CC
S1132E100E94340683EE96E00E94340680EF96E02A
S1132E200E94340689EF96E00E94340683E097E01E
S1132E300E9434068AED96E09093ED068093EC06AA
S1132E4083EE96E09093EF068093EE060F90DF9169
S1132E50CF910895CF93DF9300D01F92CDB7DEB703
S1132E602FC00E94CA129091F90681E0992309F0BB
S1132E7080E089830E94D6128981882309F50FB6E0
S1132E80F8940F928091FE069091FF06FC018681D2
S1132E9097819B838A838A819B8102960E94410742
S1132EA080910C07815080930C0780910207815018
S1132EB0809302070F900FBE8A819B810E945C1849
S1132EC080910207882369F60F900F900F90DF918D
S1132ED0CF910895CF93DF9300D0CDB7DEB79A8317
S1132EE089838091B4069091B50629813A81FC01C9
S1132EF03383228380910D0790910E0729813A81B3
S1132F002817390778F48091B4069091B5069C018E
S1132F102E5F3F4F8091EE069091EF06B9010E941B
S1132F20C8061DC08091B4069091B5069C012E5F21
S1132F303F4F8091EC069091ED06B9010E94C806BE
S1132F40809106019091070129813A812817390758
S1132F5030F489819A8190930701809306010F9040
S1132F600F90DF91CF910895CF93DF9300D000D0DD
S1132F7000D0CDB7DEB79C838B837E836D838DE1D8
S1132F8090E00E9498079A83898389819A810097A7
S1132F9051F18D819E81009729F48B819C810E943F
S1132FA0980702C08D819E8129813A81F901908F11
S1132FB0878B89819A81FC018789908D009739F4E8
S1132FC089819A810E94EE071A8219820CC0898134
S1132FD09A81FC018789908D2B813C81A90165EA46
S1132FE070E00E94322289819A8126960FB6F89465
S1132FF0DEBF0FBECDBFDF91CF910895CF93DF9396
S113300000D000D000D0CDB7DEB79E838D83198267
S11330101A821B821C8210C08D819E8101969E8320
S11330208D8389819A81AB81BC810196A11DB11DDB
S113303089839A83AB83BC838D819E81FC018081CB
S1133040853A51F389819A8126960FB6F894DEBFAA
S11330500FBECDBFDF91CF910895CF93DF93CDB74E
S1133060DEB727970FB6F894DEBF0FBECDBF9F83A0
S11330708E838E819F81009729F48091B40690916C
S1133080B50602C08E819F819A83898389819A8142
S1133090FC018789908D9C838B838B819C810E940A
S11330A0FE178D838D8127960FB6F894DEBF0FBE71
S11330B0CDBFDF91CF910895CF93DF9300D0CDB7EB
S11330C0DEB79A83898389819A81FC018789908DEF
S11330D00E94EE0789819A810E94EE070F900F905B
S11330E0DF91CF910895CF93DF9300D0CDB7DEB7B2
S11330F08091EC069091ED06FC018081882339F4DF
S11331008FEF9FEF909307018093060115C0809184
S1133110EC069091ED06FC0185819681FC01868187
S113312097819A83898389819A81FC018281938121
S113313090930701809306010F900F90DF91CF9138
S11331400895CF93DF931F92CDB7DEB78091100718
S1133150882319F481E0898308C0809115078823A6
S113316019F482E0898301C0198289810F90DF916B
S1133170CF910895AF92BF92CF92DF92EF92FF92D8
S11331800F93CF93DF931F92CDB7DEB719820E94BE
S1133190831C80912C0790912D07009791F0A12C0E
S11331A0B12CC12CD12CE12CF12C03E020E030E037
S11331B04AEA50E06CE171E085E09AE10E942E1049
S11331C0898389810F90DF91CF910F91FF90EF90C8
S11331D0DF90CF90BF90AF9008950F931F93CF933C
S11331E0DF93CDB7DEB72B970FB6F894DEBF0FBED3
S11331F0CDBF9C838B837E836D834F8339872887E0
S11332001B870A878D819E81009719F41A8219827F
S113321032C083E190E00E9498079A838983898170
S11332209A81009741F10E94831C89819A812B81A4
S11332303C81FC013183208389819A812D813E81E7
S1133240FC013587248789819A812F81FC01268797
S113325089819A8128853985FC01308B278789816A
S11332609A812A853B85FC01328B218B89819A8145
S113327002960E94690689819A812B960FB6F8946A
S1133280DEBF0FBECDBFDF91CF911F910F91089587
S11332900F931F93CF93DF93CDB7DEB72F970FB65E
S11332A0F894DEBF0FBECDBF98878F8369875B8795
S11332B04A873D872C871F870E87198280912C07A8
S11332C090912D070097D1F189858A838A859B8502
S11332D09C838B838F8198859E838D83898586309B
S11332E004F50E94A118823071F480912C0790910A
S11332F02D074E855F85BE016E5F7F4F20E00E94E3
S1133300EA0B89831BC080912C0790912D07BE0185
S11333106E5F7F4F20E040E050E00E94EA0B89831B
S11333200DC080912C0790912D074C855D85BE01C1
S11333306E5F7F4F20E00E949C0C898389812F96C9
S11333400FB6F894DEBF0FBECDBFDF91CF911F91B2
S11333500F9108950F931F93CF93DF93CDB7DEB7EB
S113336027970FB6F894DEBF0FBECDBF9D838C8325
S11333707F836E838091280790912907FC018581C2
S11333809681FC01868197819A83898389819A81B8
S113339002960E94410789819A81FC0186858130C9
S11333A001F589819A81FC01248535858C819D8173
S11333B0B901680F791F2C813D814E815F8189811C
S11333C09A810E94CA1A813061F44C815D8189819D
S11333D09A8100E010E020E030E060E00E944819AB
S11333E08B8389819A81FC012189328989819A811F
S11333F0F901099527960FB6F894DEBF0FBECDBF2D
S1133400DF91CF911F910F910895CF93DF9300D057
S113341000D01F92CDB7DEB79D838C83CE01039677
S11334200E94651A9A8389832B8189819A81622FEC
S11334300E941D1A0E94371BF1CFCF93DF9300D057
S113344000D000D0CDB7DEB79D838C836E830E94FD
S1133450CA12CE0103960E949A1A9A8389838B8199
S1133460882341F58E81882389F42C813D818981CB
S11334709A818217930750F00E94D61229813A81CB
S11334808C819D81B9010E94AA1916C02C813D81AD
S113349089819A81281B390B80912C0790912D07E3
S11334A0B9010E94EB0F0E94D612882329F40E94CE
S11334B0D80902C00E94D61226960FB6F894DEBF31
S11334C00FBECDBFDF91CF910895CF93DF9300D08E
S11334D000D0CDB7DEB79C838B8380912807909171
S11334E02907FC01908181E0992309F080E0282FCD
S11334F08B819C81FC0120838B819C81FC018081D8
S1133500882369F48091280790912907FC0185811B
S11335109681FC01808191819A83898302C01A82F9
S1133520198289819A810F900F900F900F90DF91EB
S1133530CF910895CF93DF9300D000D0CDB7DEB7FD
S11335409C838B830E9464139A83898380912E07C2
S113355090912F0729813A812817390740F40E9456
S1133560E91B8B819C8121E0FC01208304C08B81B9
S11335709C81FC01108289819A8190932F0780930A
S11335802E0789819A810F900F900F900F90DF91F1
S1133590CF910895CF93DF93CDB7DEB729970FB6B8
S11335A0F894DEBF0FBECDBF9B838A837D836C837B
S11335B05F834E833987288719828A819B812C8176
S11335C03D81FC01338322838A819B812A813B8153
S11335D0FC01318720872C813D818E819F81821758
S11335E09307F0F02E813F8188859985281B390B3C
S11335F08A819B81FC01848595852817390718F0F9
S113360081E089832AC08A819B819C012E5F3F4F80
S113361080912A0790912B07B9010E94C8061DC00A
S11336202E813F81888599852817390750F42C818C
S11336303D81888599852817390718F081E08983A9
S11336400CC08A819B819C012E5F3F4F809128078B
S113365090912907B9010E94C806898129960FB65D
S1133660F894DEBF0FBECDBFDF91CF9108950F93C5
S11336701F93CF93DF93CDB7DEB72B970FB6F89494
S1133680DEBF0FBECDBF8BC08E8188230CF487C0F4
S113369089859A859A83898389819A81FC018285A7
S11336A09385009729F089819A8102960E944107A7
S11336B0CE010B960E949A1A9C838B838E81992744
S11336C087FD9095AA2797FDA095BA2F40E050E07A
S11336D029E030E0841B950B2817390708F45CC0F7
S11336E08C5C9F4FFC010C9423222F8138854F81E1
S11336F0588589819A81FC0184859585BA01680F72
S1133700791F4B815C8189819A810E94CA1A813018
S113371019F589819A81FC012189328989819A81EB
S1133720F901099589819A81FC0186858130A1F48A
S11337302F81388589819A81FC0184859585A90129
S1133740480F591F89819A8100E010E020E030E0A1
S113375060E00E9448198D8322C02F8138858981B9
S11337609A81FC013587248789819A81FC0124850B
S113377035858B819C81B901680F791F2B813C8130
S11337804B815C8189819A810E94CA1A08C089810F
S11337909A810E94EE0703C0000001C000008091DE
S11337A02C0790912D07BE016A5F7F4F20E040E017
S11337B050E00E94070D882309F066CF2B960FB6C0
S11337C0F894DEBF0FBECDBFDF91CF911F910F9153
S11337D008950F931F93CF93DF93CDB7DEB7299747
S11337E00FB6F894DEBF0FBECDBF65C08091280729
S11337F090912907FC0185819681FC01808191814A
S11338009A8389838091280790912907FC018581F7
S11338109681FC01868197819C838B838B819C811B
S113382002960E9441078B819C81FC012189328987
S11338308B819C81F90109958B819C81FC01868592
S11338408130C9F58B819C81FC0124853585898172
S11338509A81820F931F9E838D832D813E8189815E
S11338609A8182179307D8F48B819C812D813E81A4
S1133870FC01338322838B819C812B813C81FC015D
S1133880318720878B819C819C012E5F3F4F8091E3
S1133890280790912907B9010E94C8060CC04981E4
S11338A05A818B819C8100E010E020E030E060E0F0
S11338B00E9448198F838091280790912907FC0161
S11338C08081882309F092CF80912807909129075D
S11338D09987888780912A0790912B0790932907CD
S11338E0809328078885998590932B0780932A07CE
S11338F029960FB6F894DEBF0FBECDBFDF91CF91EE
S11339001F910F910895CF93DF93CDB7DEB70FB614
S1133910F8940F9280912C0790912D070097E9F469
S113392086E197E00E9434068FE197E00E94340616
S113393086E197E090932907809328078FE197E029
S113394090932B0780932A0740E065E083E00E9470
S1133950890B90932D0780932C070F900FBEDF9156
S1133960CF910895CF93DF9300D000D01F92CDB7AD
S1133970DEB79D838C838C819D819A8389830FB666
S1133980F8940F9289819A81FC018285938521E0C4
S1133990009709F420E02B830F900FBE8B810F90CA
S11339A00F900F900F900F90DF91CF910895CF93C8
S11339B0DF93CDB7DEB71092300787E290E02FE3B4
S11339C0FC01208388E290E027E0FC0120838AE266
S11339D090E02CE1FC01208384E290E0FC01108261
S11339E085E290E0FC011082DF91CF910895CF939E
S11339F0DF9300D0CDB7DEB78A838A81883050F553
S1133A008A81282F30E081E090E002C0880F991F5E
S1133A102A95E2F789830E94CA129091300789811E
S1133A208923882349F08981982F909580913007C4
S1133A3089238093300706C0909130078981892BB0
S1133A40809330078BE290E020913007FC012083C3
S1133A500E94D6120F900F90DF91CF910895AF92EC
S1133A60BF92CF92DF92EF92FF920F93CF93DF93A7
S1133A7000D000D000D0CDB7DEB789834A835B8302
S1133A806C837D832E838A819B81AC81BD8144E0DC
S1133A90BC01CD010E949604A12CB12CC12CD12CC7
S1133AA00F2EF2E5EF2EF7E0FF2EF02D098120E036
S1133AB030E04AEA50E064E271E081E79DE10E946F
S1133AC02E1026960FB6F894DEBF0FBECDBFDF9141
S1133AD0CF910F91FF90EF90DF90CF90BF90AF9078
S1133AE00895CF92DF92EF92FF920F931F93CF939B
S1133AF0DF9300D01F92CDB7DEB79B838A8380917A
S1133B003107909132074FEF5FEF9E012F5F3F4FD8
S1133B10B9010E941205882309F4ACC18091000107
S1133B20873008F09DC180910001882309F498C171
S1133B308981823719F08981823539F580910801AC
S1133B408E3481F482E78093080110924B0710921F
S1133B504A071092490780914307909144070E94B5
S1133B60221212C080910801833771F483E5809397
S1133B70080184EB90E0FC01808180934B07109254
S1133B804A07109249079BC09AC08981833721F064
S1133B908981833509F093C080910801823509F049
S1133BA06DC083E78093080180914107909142079B
S1133BB00E94B21C813069F48091410790914207C0
S1133BC004E610E020E030E040E050E063E00E94D2
S1133BD0481980910101882F90E0A0E0B0E0BC0179
S1133BE0CD010E94EC20DC01CB0180933707909338
S1133BF03807A0933907B0933A0780910101882FC1
S1133C0090E0AA2797FDA095BA2FBC01CD010E9490
S1133C10EE206B017C0180910301882F90E0AA279C
S1133C2097FDA095BA2FBC01CD010E94EE20DC01C6
S1133C30CB0120E030E048EC52E4BC01CD010E940D
S1133C409E21DC01CB019C01AD01C701B6010E949C
S1133C505820DC01CB018093450790934607A0933D
S1133C604707B093480710924A071092490780917A
S1133C704307909144070E94221221C080910801B9
S1133C808237E9F485E48093080184EB90E0FC0139
S1133C908081882F90E0A0E0B0E0BC01CD010E94BB
S1133CA0EC20DC01CB018093370790933807A09375
S1133CB03907B0933A0710924A071092490789814D
S1133CC0803519F40E943B1FCAC089818F3419F4CE
S1133CD00E949D1FC4C08981863209F0C0C08091B2
S1133CE008018E3409F0BBC08091310790913207EE
S1133CF04FEF5FEF9E012F5F3F4FB9010E94120506
S1133D0089818093010180913107909132074FEFAF
S1133D105FEF9E012F5F3F4FB9010E941205809112
S1133D200101882F90E0AA2797FDA095BA2FBC0126
S1133D30CD010E94EE206B017C018981992787FDCA
S1133D409095A92FB92FBC01CD010E94EE20DC0172
S1133D50CB0120E030E048EC52E4BC01CD010E94EC
S1133D609E21DC01CB019C01AD01C701B6010E947B
S1133D705820DC01CB0180933B0790933C07A09330
S1133D803D07B0933E0789818093020180913107FA
S1133D90909132074FEF5FEF9E012F5F3F4FB901C4
S1133DA00E94120580910101882F90E0AA2797FDB7
S1133DB0A095BA2FBC01CD010E94EE206B017C01BD
S1133DC08981992787FD9095A92FB92FBC01CD0131
S1133DD00E94EE20DC01CB0120E030E048EC52E40C
S1133DE0BC01CD010E949E21DC01CB019C01AD01EF
S1133DF0C701B6010E945820DC01CB01809345071E
S1133E0090934607A0934707B0934807898180930E
S1133E10030180913107909132074FEF5FEF9E01CC
S1133E202F5F3F4FB9010E941205898180930401DD
S1133E3080910401807480933601809104018F7312
S1133E408093050180910401282F8091310790917E
S1133E50320744E650E0622F0E9438050BC00AC0C6
S1133E6088E290E020912D01FC0120838EE4809370
S1133E70080145CE44CECF93DF93CDB7DEB7809112
S1133E8031079091320744E650E06AE20E94380517
S1133E90809131079091320744E650E06AE20E9433
S1133EA0380580915207909153070E942D18282FAE
S1133EB0809131079091320744E650E0622F0E94CE
S1133EC0380580913307909134070E942D18282FCC
S1133ED0809131079091320744E650E0622F0E94AE
S1133EE0380580914307909144070E942D18282F8C
S1133EF0809131079091320744E650E0622F0E948E
S1133F00380580913F07909140070E942D18282F73
S1133F10809131079091320744E650E0622F0E946D
S1133F203805809131079091320744E650E06AE207
S1133F300E943805DF91CF910895CF93DF93CDB7D9
S1133F40DEB7809131079091320744E650E066E293
S1133F500E943805809131079091320744E650E081
S1133F6066E20E94380580910101282F8091310773
S1133F709091320744E650E0622F0E943805809108
S1133F800201282F809131079091320744E650E0D6
S1133F90622F0E94380580910301282F80913107F8
S1133FA09091320744E650E0622F0E9438058091D8
S1133FB00401282F809131079091320744E650E0A4
S1133FC0622F0E943805809131079091320744E6B0
S1133FD050E066E20E943805DF91CF910895505871
S1133FE0BB27AA270ED070C161D130F066D120F072
S1133FF031F49F3F11F41EF456C10EF4E095E7FB33
S11340004CC1E92F72D180F3BA1762077307840792
S1134010950718F071F49EF58AC10EF4E0950B2E05
S1134020BA2FA02D0B01B90190010C01CA01A00106
S11340301124FF27591B99F0593F50F4503E68F161
S11340401A16F040A22F232F342F4427585FF3CFA2
S1134050469537952795A795F0405395C9F77EF473
S11340601F16BA0B620B730B840BBAF09150A1F0BC
S1134070FF0FBB1F661F771F881FC2F70EC0BA0F42
S1134080621F731F841F48F4879577956795B795CA
S1134090F7959E3F08F0B3CF9395880F08F09927C2
S11340A0EE0F979587950895D4D008F481E008958C
S11340B00CD00AC102D140F0F9D030F021F45F3FB6
S11340C019F0EBC0511134C1EEC00FD198F399230C
S11340D0C9F35523B1F3951B550BBB27AA276217C8
S11340E07307840738F09F5F5F4F220F331F441F0D
S11340F0AA1FA9F333D00E2E3AF0E0E830D0915045
S11341005040E695001CCAF729D0FE2F27D0660F31
S1134110771F881FBB1F261737074807AB07B0E870
S113412009F0BB0B802DBF01FF2793585F4F2AF086
S11341309E3F510568F0B1C0FBC05F3FECF3983E71
S1134140DCF3869577956795B795F7959F5FC9F7E3
S1134150880F911D9695879597F90895E1E0660F6C
S1134160771F881FBB1F621773078407BA0720F0E5
S1134170621B730B840BBA0BEE1F88F7E09508954E
S1134180BCD088F09F5790F0B92F9927B751A0F071
S1134190D1F0660F771F881F991F1AF0BA95C9F7D7
S11341A012C0B13081F0C3D0B1E00895C0C0672F10
S11341B0782F8827B85F39F0B93FCCF38695779587
S11341C06795B395D9F73EF4909580957095619570
S11341D07F4F8F4F9F4F0895E89409C097FB3EF49B
S11341E090958095709561957F4F8F4F9F4F992340
S11341F0A9F0F92F96E9BB279395F69587957795BE
S11342006795B795F111F8CFFAF4BB0F11F460FF7D
S11342101BC06F5F7F4F8F4F9F4F16C0882311F0D5
S113422096E911C0772321F09EE8872F762F05C0E9
S1134230662371F096E8862F70E060E02AF09A9584
S1134240660F771F881FDAF7880F9695879597F979
S11342500895990F0008550FAA0BE0E8FEEF161613
S11342601706E807F907C0F012161306E407F50766
S113427098F0621B730B840B950B39F40A2661F0DA
S1134280232B242B252B21F408950A2609F4A1407D
S1134290A6958FEF811D811D089597F99F6780E88A
S11342A070E060E008959FEF80EC089500240A9484
S11342B01616170618060906089500240A941216FD
S11342C01306140605060895092E0394000C11F430
S11342D0882352F0BB0F40F4BF2B11F460FF04C0DD
S11342E06F5F7F4F8F4F9F4F089557FD9058440F36
S11342F0551F59F05F3F71F04795880F97FB991F41
S113430061F09F3F79F087950895121613061406FD
S1134310551FF2CF4695F1DF08C01616170618068A
S1134320991FF1CF86957105610508940895E89465
S1134330BB2766277727CB0197F908950BD0C4CF05
S1134340B5DF28F0BADF18F0952309F0A6CFABCF7C
S11343501124EECFCADFA0F3959FD1F3950F50E05F
S1134360551F629FF001729FBB27F00DB11D639F23
S1134370AA27F00DB11DAA1F649F6627B00DA11DC9
S1134380661F829F2227B00DA11D621F739FB00D6F
S1134390A11D621F839FA00D611D221F749F3327DF
S11343A0A00D611D231F849F600D211D822F762F78
S11343B06A2F11249F5750408AF0E1F088234AF075
S11343C0EE0FFF1FBB1F661F771F881F91505040C1
S11343D0A9F79E3F510570F060CFAACF5F3FECF381
S11343E0983EDCF3869577956795B795F795E795AD
S11343F09F5FC1F7FE2B880F911D9695879597F9BE
S11344000895A1E21A2EAA1BBB1BFD010DC0AA1F11
S1134410BB1FEE1FFF1FA217B307E407F50720F029
S1134420A21BB30BE40BF50B661F771F881F991FA4
S11344301A9469F760957095809590959B01AC01ED
S1134440BD01CF010895EE0FFF1F0590F491E02DFB
S11344500994FB01DC0102C001900D9241505040CF
S1134460D8F70895DC0101C06D9341505040E0F746
S10944700895F894FFCF4B
S1134476FFFF1E1E0505FFFF4E4C0054696D657255
S1134486004D0052004E0049444C4500546D7220C4
S11344965376630052003F260D2513160B073F0B78
S10944A61613250D260784
S9030000FC
