:100000000C943E000C945B000C945B000C94F60383
:100010000C945B000C945B000C945B000C945B00F4
:100020000C945B000C945B000C945B000C94B80A7D
:100030000C945B000C945B000C945B000C945B00D4
:100040000C945B000C945B000C942F050C947405CD
:100050000C945B000C945B000C945B000C945B00B4
:100060000C945B000C945B00E219E219E2193B1A54
:100070001A1A341AE219E2193B1A1A1A11241FBE6D
:10008000CFEFD8E0DEBFCDBF11E0A0E0B1E0EAE500
:10009000F1E402C005900D92AC33B107D9F727E027
:1000A000ACE3B1E001C01D92AE38B207E1F70E94A7
:1000B000C5050C94AB200C940000AF92BF92CF9278
:1000C000DF92EF92FF920F93CF93DF931F92CDB702
:1000D000DEB78983A12CB12CC12CD12C0F2EF5E4D5
:1000E000EF2EF7E0FF2EF02D098120E030E04AEA04
:1000F00050E065E171E08AE890E00E94F20F0F9015
:10010000DF91CF910F91FF90EF90DF90CF90BF9054
:10011000AF900895CF93DF9300D000D0CDB7DEB776
:100120009C838B830E942C129A838983809147073A
:1001300090914807BC01CE0101960E94D81082E040
:100140000E943F1BF3CFCF93DF93CDB7DEB788E29A
:1001500090E02FE3FC01208380910D01882F90E037
:10016000AA2797FDA095BA2FBC01CD010E945C1F64
:10017000DC01CB0120E030E048E453E4BC01CD01D8
:100180000E94C61EDC01CB01809355079093560751
:10019000A0935707B0935807809155079091560741
:1001A000A0915707B091580780935D0790935E0721
:1001B000A0935F07B09360070E94E00143E060E016
:1001C00081E00E944D0B9093650780936407109225
:1001D0006207109261078AE290E02AE230E0F901BA
:1001E00020812860FC01208380EB90E023E2FC0169
:1001F000208381EB90E022E0FC01208384EB90E0FF
:10020000FC01108288E690E028E630E0F9012081C8
:100210002160FC0120838BE690E02BE630E0F901C1
:1002200020812760FC012083DF91CF910895AF9258
:10023000BF92CF92DF92EF92FF920F93CF93DF9313
:100240001F92CDB7DEB7898389818F5FA12CB12C36
:10025000C12CD12C0F2EF9E5EF2EF7E0FF2EF02D5B
:10026000082F20E030E04AEA50E067E171E087E5DE
:1002700091E00E94F20FA12CB12CC12CD12CE12CC9
:10028000F12C098120E030E04FEF50E069E171E0AE
:100290008EEE91E00E94F20F0F90DF91CF910F91BF
:1002A000FF90EF90DF90CF90BF90AF900895CF93E5
:1002B000DF9300D01F92CDB7DEB79B838A838091F6
:1002C00064079091650720E04FEF5FEF60E070E01A
:1002D0000E94CB0C882309F472C089E290E0FC01F3
:1002E0008081807A898380911401823581F08091A8
:1002F0001401823761F080911401833741F08091BD
:100300001401853421F080911401833591F584EB3B
:1003100090E0FC018081882331F18091490188239C
:1003200089F088E290E023E230E0F9012081222F79
:1003300030E0277033272C5C3E4FF9012081FC010F
:1003400020833DC088E290E023E230E0F901208183
:10035000222F30E027703327245D3E4FF9012081A2
:10036000FC0120832CC088E290E027E0FC01208380
:1003700026C0809114018E3451F488E290E02FE37E
:10038000FC01208384EB90E0FC01108218C00FB6C2
:10039000F8940F928EE48093140188E290E02FE3AA
:1003A000FC01208384EB90E0FC01108283E391E068
:1003B00090934807809347070F900FBE80CF7FCF61
:1003C000CF93DF93CDB7DEB783E290E0FC0180816D
:1003D000877080930C01DF91CF910895CF92DF92C7
:1003E000EF92FF92CF93DF9300D000D0CDB7DEB76E
:1003F0009C838B8380913C0190913D0190934401BB
:10040000809343010E942C129A8389832091410199
:100410003091420180913E0190913F0182179307F4
:10042000F4F480913E0190913F01029690933F0138
:1004300080933E01209141013091420180913E0123
:1004400090913F01281739070CF045C08091410178
:100450009091420190933F0180933E013CC02091D6
:1004600041013091420180913E0190913F01281756
:100470003907ECF480913E0190913F0102979093EF
:100480003F0180933E0120914101309142018091D2
:100490003E0190913F0182179307ECF48091410156
:1004A0009091420190933F0180933E0114C080914E
:1004B0004001882369F09091400181E0992309F07F
:1004C00080E080934001109242011092410103C0EC
:1004D0008EE48093140120913E0130913F01809180
:1004E0003C0190913D01A901481B590BCA01909311
:1004F0005C0780935B0780915B0790915C07AA275C
:1005000097FDA095BA2FBC01CD010E945C1FDC01B4
:10051000CB012FE632E143E85AE3BC01CD010E9452
:100520001020DC01CB012091450130914601409122
:10053000470150914801BC01CD010E945E1EDC01C3
:10054000CB018093450190934601A0934701B0935E
:10055000480120915B0730915C07809143019091A5
:100560004401A901481B590B28EE33E0429FC0010A
:10057000439F900D529F900D1124AA2797FDA0959F
:10058000BA2FBC01CD010E945C1FDC01CB0180931E
:10059000490790934A07A0934B07B0934C0780916B
:1005A0005B0790915C07AA2797FDA095BA2FBC0125
:1005B000CD010E945C1FDC01CB0120910001309134
:1005C00001014091020150910301BC01CD010E9443
:1005D0001020DC01CB016C017D0180910401909120
:1005E0000501A0910601B0910701209145013091CC
:1005F00046014091470150914801BC01CD010E9444
:100600001020DC01CB019C01AD01C701B6010E94A5
:100610005E1EDC01CB016C017D018091080190918F
:100620000901A0910A01B0910B0120914907309175
:100630004A0740914B0750914C07BC01CD010E94E5
:100640001020DC01CB019C01AD01C701B6010E9465
:100650005E1EDC01CB0180934D0790934E07A09363
:100660004F07B093500780914D0790914E07A0918E
:100670004F07B0915007BC01CD010E9459038091F2
:1006800064079091650720E040E050E060E070E092
:100690000E94AE0B80915B0790915C0790934401A0
:1006A000809343016AE070E0CE0101960E94D81069
:1006B000ADCE0F931F93CF93DF9300D000D0CDB773
:1006C000DEB769837A838B839C8320E030E040E44B
:1006D00050EC69817A818B819C810E94C21E181620
:1006E000C4F182E58093140180E4809349018981FB
:1006F0009A81AB81BC81B05823E333E343E250E4F9
:10070000BC01CD010E941020DC01CB0189839A83BA
:10071000AB83BC8320E030E046EC52E469817A810F
:100720008B819C810E940C20181634F484EB90E09D
:100730002FEFFC01208351C004EB10E069817A8126
:100740008B819C810E942E1FDC01CB01F8018083EC
:1007500044C020E030E040E450E469817A818B813C
:100760009C810E940C208823A4F182E580931401CF
:100770001092490123E333E343E250E469817A8133
:100780008B819C810E941020DC01CB0189839A839C
:10079000AB83BC8320E030E046EC52E469817A818F
:1007A0008B819C810E940C20181634F484EB90E01D
:1007B0002FEFFC01208311C004EB10E069817A81E6
:1007C0008B819C810E942E1FDC01CB01F80180836C
:1007D00004C084EB90E0FC0110820F900F900F900A
:1007E0000F90DF91CF911F910F9108951F920F925B
:1007F00000905F000F9211242F933F934F935F93CC
:100800006F937F938F939F93AF93BF93EF93FF93D8
:10081000CF93DF9300D0CDB7DEB71A8219828091D3
:100820004901882351F080913C0190913D0101974D
:1008300090933D0180933C010DC080914901882334
:1008400049F480913C0190913D01019690933D01C6
:1008500080933C0180911401882F90E021E08B313E
:10086000920791F0809164079091650720E0AE01B6
:100870004F5F5F4F60E070E00E94600C89819A8159
:10088000009711F00E949C090F900F90DF91CF917B
:10089000FF91EF91BF91AF919F918F917F916F9158
:1008A0005F914F913F912F910F9000925F000F90B9
:1008B0001F901895CF93DF93CDB7DEB72E970FB665
:1008C000F894DEBF0FBECDBF6E837F838887998784
:1008D0004A870FB6F8940F9240E061E08A850E9443
:1008E0004D0B909369078093680740E061E08A852B
:1008F0000E944D0B90936707809366078E819F81BE
:10090000A885B985880F991FAA1FBB1F880F991F3B
:10091000AA1FBB1F880F991FAA1FBB1F880F991FF3
:10092000AA1FBB1F9C01AD0180E094E2A4EFB0E0E0
:10093000BC01CD010E947320DA01C9010197A10910
:10094000B10989839A83AB83BC8389818D8384ECCD
:1009500090E02D81FC01208389819A81AB81BC814B
:10096000892F9A2FAB2FBB2789839A83AB83BC83B4
:1009700089818D8385EC90E02D81FC01208382ECC0
:1009800090E026E0FC01208381EC90E028E9FC0166
:1009900020830F900FBE80E090E02E960FB6F89463
:1009A000DEBF0FBECDBFDF91CF910895CF93DF9310
:1009B00000D000D000D0CDB7DEB79A8389837C8386
:1009C0006B835E834D8380916807909169074D81A9
:1009D0005E816B817C8120E00E94CB0C882311F02A
:1009E00081E001C080E026960FB6F894DEBF0FBE0E
:1009F000CDBFDF91CF910895CF93DF9300D000D08A
:100A000000D0CDB7DEB79B838A836C835E834D8332
:100A100080916607909167074D815E81BE016C5F92
:100A20007F4F20E00E94AE0B813011F080E00EC0BD
:100A300081EC90E0FC0180818983898180628983D7
:100A400081EC90E02981FC01208381E026960FB69D
:100A5000F894DEBF0FBECDBFDF91CF9108951F92F6
:100A60000F9200905F000F9211242F933F934F93AA
:100A70005F936F937F938F939F93AF93BF93EF9306
:100A8000FF93CF93DF9300D0CDB7DEB71A8286EC09
:100A900090E0FC01808189838091680790916907CB
:100AA000AE014E5F5F4F20E0BE016F5F7F4F0E943F
:100AB000600C8A81882311F00E949C090F900F908E
:100AC000DF91CF91FF91EF91BF91AF919F918F9166
:100AD0007F916F915F914F913F912F910F90009275
:100AE0005F000F901F9018951F920F9200905F006B
:100AF0000F9211242F933F934F935F936F937F93A4
:100B00008F939F93AF93BF93EF93FF93CF93DF9315
:100B100000D01F92CDB7DEB780916607909167072E
:100B2000AE014D5F5F4F9E012E5F3F4FB9010E94A6
:100B30009A0D813031F486EC90E02A81FC0120830B
:100B40000DC081EC90E0FC018081898389818F7DDB
:100B5000898381EC90E02981FC0120830F900F9024
:100B60000F90DF91CF91FF91EF91BF91AF919F9146
:100B70008F917F916F915F914F913F912F910F9046
:100B800000925F000F901F901895CF93DF93CDB721
:100B9000DEB70E941F1B0E94A30084E395E09093A0
:100BA00048078093470781E00E945D0082E00E9431
:100BB000170124E140E855E260E070E081E00E9426
:100BC000771B0E94511180E090E0DF91CF91089552
:100BD000CF93DF93CDB7DEB7809161079091620725
:100BE00001969093620780936107DF91CF910895FA
:100BF000CF93DF9300D0CDB7DEB79A838983898105
:100C00009A819C012D5F3F4F89819A81FC0132833B
:100C1000218389819A812FEF3FEFFC013483238365
:100C200089819A819C012D5F3F4F89819A81FC01C6
:100C30003683258389819A819C012D5F3F4F89816D
:100C40009A81FC013087278389819A81FC01108277
:100C50000F900F90DF91CF910895CF93DF9300D045
:100C6000CDB7DEB79A83898389819A81FC01118689
:100C700010860F900F90DF91CF910895CF93DF935F
:100C800000D000D000D0CDB7DEB79C838B837E83AD
:100C90006D838B819C81FC01818192819A83898300
:100CA0008D819E8129813A81FC0133832283898150
:100CB0009A81FC01248135818D819E81FC013583DF
:100CC000248389819A81FC01848195812D813E81D3
:100CD000FC013383228389819A812D813E81FC012D
:100CE000358324838D819E812B813C81FC0131875A
:100CF00020878B819C81FC01808121E0280F8B81E2
:100D00009C81FC01208326960FB6F894DEBF0FBEAF
:100D1000CDBFDF91CF910895CF93DF93CDB7DEB7ED
:100D200028970FB6F894DEBF0FBECDBF9E838D838C
:100D300078876F838F819885FC01808191819C8366
:100D40008B838B819C818F3FFFEF9F0741F48D81C7
:100D50009E81FC01878190859A8389831AC08D8149
:100D60009E8103969A83898307C089819A81FC01B9
:100D7000828193819A83898389819A81FC0182810E
:100D80009381FC01208131818B819C8182179307A3
:100D900060F789819A81FC01228133818F81988556
:100DA000FC01338322838F819885FC0182819381AA
:100DB0002F813885FC01358324838F819885298193
:100DC0003A81FC013583248389819A812F8138857A
:100DD000FC01338322838F8198852D813E81FC0124
:100DE000318720878D819E81FC01808121E0280F41
:100DF0008D819E81FC01208328960FB6F894DEBF7A
:100E00000FBECDBFDF91CF910895CF93DF9300D078
:100E100000D0CDB7DEB79C838B838B819C81FC0196
:100E2000808591859A8389838B819C81FC01828155
:100E300093812B813C81F90124813581FC0135832B
:100E400024838B819C81FC01848195812B813C8151
:100E5000F90122813381FC013383228389819A81C4
:100E6000FC01218132818B819C812817390751F443
:100E70008B819C81FC012481358189819A81FC01CF
:100E8000328321838B819C81FC01118610868981AC
:100E90009A81FC0180812FEF280F89819A81FC01C2
:100EA000208389819A81FC0180810F900F900F909F
:100EB0000F90DF91CF910895CF93DF9300D000D0B2
:100EC000CDB7DEB79C838B831A8219820E94921160
:100ED0008091C4069091C506009731F48BE491E0AF
:100EE0009093C5068093C4062091C2063091C30634
:100EF0008B819C81820F931F873725E0920738F5FD
:100F00002091C2063091C3068B819C81280F391F26
:100F10008091C2069091C30682179307C0F4209176
:100F2000C4063091C5068091C2069091C306820F17
:100F3000931F9A8389832091C2063091C3068B81C7
:100F40009C81820F931F9093C3068093C2060E94D8
:100F50009E1189819A810F900F900F900F90DF91D1
:100F6000CF910895CF93DF9300D0CDB7DEB79A83AA
:100F700089830F900F90DF91CF910895CF93DF93E6
:100F8000CDB7DEB728970FB6F894DEBF0FBECDBF42
:100F90009C838B837E836D8358874F838B819C8159
:100FA00021E1FC0120838B819C8101979C838B83B1
:100FB0008B819C8122E2FC0120838B819C810197A3
:100FC0009C838B838B819C8123E3FC0120838B8119
:100FD0009C8101979C838B838D819E819A838983D9
:100FE00029818B819C81FC0120838B819C810197CD
:100FF0009C838B8389819A81892F99279A838983FE
:1010000029818B819C81FC0120838B819C810197AC
:101010009C838B838B819C81FC0110828B819C81C2
:1010200001979C838B838B819C8120E8FC0120832A
:101030008B819C8101979C838B838B819C81FC019C
:1010400010828B819C8101979C838B838B819C81F7
:1010500022E0FC0120838B819C8101979C838B8300
:101060008B819C8123E0FC0120838B819C810197F3
:101070009C838B838B819C8124E0FC0120838B816A
:101080009C8101979C838B838B819C8125E0FC0153
:1010900020838B819C8101979C838B838B819C8196
:1010A00026E0FC0120838B819C8101979C838B83AC
:1010B0008B819C8127E0FC0120838B819C8101979F
:1010C0009C838B838B819C8128E0FC0120838B8116
:1010D0009C8101979C838B838B819C8129E0FC01FF
:1010E00020838B819C8101979C838B838B819C8146
:1010F00020E1FC0120838B819C8101979C838B8361
:101100008B819C8121E1FC0120838B819C81019753
:101110009C838B838B819C8122E1FC0120838B81CA
:101120009C8101979C838B838B819C8123E1FC01B3
:1011300020838B819C8101979C838B838B819C81F5
:1011400024E1FC0120838B819C8101979C838B830C
:101150008B819C8125E1FC0120838B819C810197FF
:101160009C838B838B819C8126E1FC0120838B8176
:101170009C8101979C838B838B819C8127E1FC015F
:1011800020838B819C8101979C838B838B819C81A5
:1011900028E1FC0120838B819C8101979C838B83B8
:1011A0008B819C8129E1FC0120838B819C810197AB
:1011B0009C838B838B819C8120E2FC0120838B812B
:1011C0009C8101979C838B838B819C8121E2FC0114
:1011D00020838B819C8101979C838B838B819C8155
:1011E00022E2FC0120838B819C8101979C838B836D
:1011F0008B819C8123E2FC0120838B819C81019760
:101200009C838B838F8198859A83898329818B81A5
:101210009C81FC0120838B819C8101979C838B8323
:1012200089819A81892F99279A83898329818B8142
:101230009C81FC0120838B819C8101979C838B8303
:101240008B819C8126E2FC0120838B819C8101970C
:101250009C838B838B819C8127E2FC0120838B8183
:101260009C8101979C838B838B819C8128E2FC016C
:1012700020838B819C8101979C838B838B819C81B4
:1012800029E2FC0120838B819C8101979C838B83C5
:101290008B819C8120E3FC0120838B819C810197C1
:1012A0009C838B838B819C8121E3FC0120838B8138
:1012B0009C8101979C838B838B819C8128960FB6A0
:1012C000F894DEBF0FBECDBFDF91CF910895CF93CD
:1012D000DF93CDB7DEB70E94520AA091C606B09147
:1012E000C706CD91CDBFDD91DEBFFF91EF91DF91BC
:1012F000CF91BF91AF919F918F917F916F915F91AE
:101300004F913F912F911F910F91FF90EF90DF90A0
:10131000CF90BF90AF909F908F907F906F905F9095
:101320004F903F902F901F900F900FBE0F900895F9
:1013300081E0DF91CF9108950F920FB6F8940F924C
:101340001F9211242F923F924F925F926F927F9241
:101350008F929F92AF92BF92CF92DF92EF92FF92C5
:101360000F931F932F933F934F935F936F937F93AD
:101370008F939F93AF93BF93CF93DF93EF93FF939D
:10138000A091C606B091C7060DB60D920EB60D928D
:101390000E943913A091C606B091C706CD91CDBF6A
:1013A000DD91DEBFFF91EF91DF91CF91BF91AF91C2
:1013B0009F918F917F916F915F914F913F912F916D
:1013C0001F910F91FF90EF90DF90CF90BF90AF9063
:1013D0009F908F907F906F905F904F903F902F9055
:1013E0001F900F900FBE0F9008950F920FB6F894B4
:1013F0000F921F9211242F923F924F925F926F9201
:101400007F928F929F92AF92BF92CF92DF92EF9294
:10141000FF920F931F932F933F934F935F936F937D
:101420007F938F939F93AF93BF93CF93DF93EF936C
:10143000FF93A091C606B091C7060DB60D920EB6E9
:101440000D920E944312882311F00E943913A0913B
:10145000C606B091C706CD91CDBFDD91DEBFFF912D
:10146000EF91DF91CF91BF91AF919F918F917F913C
:101470006F915F914F913F912F911F910F91FF902D
:10148000EF90DF90CF90BF90AF909F908F907F9024
:101490006F905F904F903F902F901F900F900FBED6
:1014A0000F900895CF93DF93CDB7DEB72A970FB68D
:1014B000F894DEBF0FBECDBF80E990EDA3E0B0E0B1
:1014C00089839A83AB83BC8389819A81AB81BC81F8
:1014D00028EE33E040E050E0BC01CD010E947320D3
:1014E000DA01C90189839A83AB83BC8389819A819C
:1014F000AB81BC810197A109B10989839A83AB8330
:10150000BC8389818D8389819A81AB81BC81892F3C
:101510009A2FAB2FBB2789839A83AB83BC838981A6
:101520008E8389E890E02E81FC01208388E890E09A
:101530002D81FC0120838BE08D8381E890E02D815B
:10154000FC0120838FE690E0FC0180818D838D81FA
:1015500082608D838FE690E02D81FC0120832A96A6
:101560000FB6F894DEBF0FBECDBFDF91CF910895C7
:101570000E94F5091895CF93DF9300D000D01F92F9
:10158000CDB7DEB79C838B836D838B819C819A83DF
:1015900089830FB6F8940F9289819A81FC0120818A
:1015A000318189819A81FC01838D682F70E0898166
:1015B0009A81FC01848D482F50E0649FC001659F93
:1015C000900D749F900D1124280F391F89819A81E5
:1015D000FC013383228389819A81FC01128E8981E7
:1015E0009A81FC012081318189819A81FC013583B6
:1015F000248389819A81FC012081318189819A81AA
:10160000FC01838D882F90E0BC01615071098981B4
:101610009A81FC01848D482F50E0649FC001659F32
:10162000900D749F900D1124280F391F89819A8184
:10163000FC013783268389819A812FEFFC01258F56
:1016400089819A812FEFFC01268F8D81882381F477
:1016500089819A81FC0180858823A1F089819A8102
:1016600008960E942314813069F40E949C090AC0E4
:1016700089819A8108960E94F80589819A8141960C
:101680000E94F8050F900FBE81E00F900F900F9011
:101690000F900F90DF91CF910895CF93DF93CDB747
:1016A000DEB729970FB6F894DEBF0FBECDBF8F838C
:1016B000688749871A8219828F81882309F443C079
:1016C0008FE190E00E945C079C838B838B819C81DF
:1016D0000097C9F18F81482F50E08885282F30E08E
:1016E000429FC001439F900D529F900D112401967F
:1016F0009E838D838D819E810E945C079C018B81DE
:101700009C81FC01318320838B819C81FC01808141
:1017100091810097A1F08B819C812F81FC01238F07
:101720008B819C812885FC01248F8B819C8161E0C9
:101730000E94BB0A8B819C819A83898304C08B8120
:101740009C810E94B20789819A8129960FB6F894EC
:10175000DEBF0FBECDBFDF91CF910895CF93DF9352
:10176000CDB7DEB72E970FB6F894DEBF0FBECDBF54
:10177000998788877B876A875D874C872E87198240
:10178000888599859B838A830FB6F8940F928A8106
:101790009B81FC01228D8A819B81FC01838D28170E
:1017A00018F08E85823011F52A853B858A819B81D0
:1017B0004E85B9010E94FB0D8C838A819B81FC01BF
:1017C0008189882351F08A819B8141960E9423144C
:1017D000813041F40E949C0905C08C81882311F05E
:1017E0000E949C090F900FBE81E061C08C859D8591
:1017F000009721F40F900FBE80E059C089818823A3
:1018000031F4CE0105960E94901481E089830F90F7
:101810000FBE0E9492110FB6F8940F928A819B819D
:10182000FC01858D8F3F21F48A819B81FC01158EFF
:101830008A819B81FC01868D8F3F21F48A819B8167
:10184000FC01168E0F900FBE9E01245F3F4FCE010C
:101850000596B9010E94AB14882301F58A819B810A
:101860000E948D0F882399F02C853D858A819B816C
:101870000896B9010E94A8138A819B810E940B0FD0
:101880000E949E11882391F40E949C090FC08A81B6
:101890009B810E940B0F0E949E1176CF8A819B81B3
:1018A0000E940B0F0E949E1180E001C06DCF2E960A
:1018B0000FB6F894DEBF0FBECDBFDF91CF91089574
:1018C000CF93DF93CDB7DEB72B970FB6F894DEBF7B
:1018D0000FBECDBF9E838D8378876F835A874987DC
:1018E0002B878D819E819B838A831C828A819B8129
:1018F000FC01228D8A819B81FC01838D281718F0C1
:101900008B858230E9F52F8138858A819B814B85D3
:10191000B9010E94FB0D882349F089859A850097BB
:1019200029F089859A8521E0FC0120838A819B81A9
:10193000FC01868D8F3FB9F48A819B81FC018189EE
:101940008823D9F08A819B8141960E9423148823A1
:10195000A1F089859A85009781F089859A8521E093
:10196000FC0120830AC08A819B81FC01868D21E0D5
:10197000280F8A819B81FC01268F81E0898301C029
:10198000198289812B960FB6F894DEBF0FBECDBFAA
:10199000DF91CF910895CF93DF93CDB7DEB72F9727
:1019A0000FB6F894DEBF0FBECDBF9A8789877C87BC
:1019B0006B875E874D872F87198289859A859B83E0
:1019C0008A830FB6F8940F928A819B81FC01828DE5
:1019D000882309F445C08A819B81FC018681978117
:1019E0009D838C832B853C858A819B81B9010E94D4
:1019F000BB0E8F858823D1F48A819B81FC01828D67
:101A00002FEF280F8A819B81FC01228F8A819B8185
:101A1000FC018085882301F18A819B8108960E94C0
:101A200023148130C9F40E949C0916C08A819B81CD
:101A30002C813D81FC01378326838A819B81FC01B7
:101A40008189882349F08A819B8141960E942314D1
:101A5000882311F00E949C090F900FBE81E061C0A5
:101A60008D859E85009721F40F900FBE80E059C0B0
:101A70008981882331F4CE0106960E94901481E07A
:101A800089830F900FBE0E9492110FB6F8940F92A7
:101A90008A819B81FC01858D8F3F21F48A819B8106
:101AA000FC01158E8A819B81FC01868D8F3F21F47C
:101AB0008A819B81FC01168E0F900FBE9E01235FD1
:101AC0003F4FCE010696B9010E94AB14882301F561
:101AD0008A819B810E946F0F882399F02D853E8516
:101AE0008A819B814196B9010E94A8138A819B81BA
:101AF0000E940B0F0E949E11882391F40E949C0962
:101B00000FC08A819B810E940B0F0E949E1159CFAA
:101B10008A819B810E940B0F0E949E1180E001C070
:101B200050CF2F960FB6F894DEBF0FBECDBFDF911A
:101B3000CF910895CF93DF93CDB7DEB72A970FB635
:101B4000F894DEBF0FBECDBF9E838D8378876F83F1
:101B50005A8749878D819E819B838A831C828A81D3
:101B60009B81FC01828D8823D9F12F8138858A8160
:101B70009B81B9010E94BB0E8A819B81FC01828DF1
:101B80002FEF280F8A819B81FC01228F8A819B8104
:101B9000FC01858D8F3FB9F48A819B81FC01808592
:101BA0008823D9F08A819B8108960E942314882378
:101BB000A1F089859A85009781F089859A8521E031
:101BC000FC0120830AC08A819B81FC01858D21E074
:101BD000280F8A819B81FC01258F81E0898301C0C8
:101BE000198289812A960FB6F894DEBF0FBECDBF49
:101BF000DF91CF910895CF93DF9300D000D000D034
:101C0000CDB7DEB79B838A837D836C834E83198235
:101C10008A819B81FC01848D882309F498C08E8180
:101C20008823D9F58A819B81FC01848D482F50E05F
:101C30008A819B81FC01848195812C813D81B90140
:101C40000E949B208A819B81FC01248135818A81AD
:101C50009B81FC01848D882F90E0280F391F8A8199
:101C60009B81FC01358324838A819B81FC01248133
:101C700035818A819B81FC018281938128173907F4
:101C800008F465C08A819B81FC01208131818A81B1
:101C90009B81FC01358324835AC08A819B81FC018E
:101CA000848D482F50E08A819B81FC018681978139
:101CB0002C813D81B9010E949B208A819B81FC017E
:101CC000268137818A819B81FC01848D882F90E059
:101CD000919581959109280F391F8A819B81FC017B
:101CE000378326838A819B81FC01268137818A8103
:101CF0009B81FC018081918128173907A8F48A8192
:101D00009B81FC01228133818A819B81FC01848D2E
:101D1000882F90E0919581959109280F391F8A812C
:101D20009B81FC01378326838E81823081F48A81F6
:101D30009B81FC01828D882351F08A819B81FC016B
:101D4000828D2FEF280F8A819B81FC01228F8A814F
:101D50009B81FC01828D21E0280F8A819B81FC01FF
:101D6000228F898126960FB6F894DEBF0FBECDBFB5
:101D7000DF91CF910895CF93DF9300D000D0CDB7FE
:101D8000DEB79A8389837C836B8389819A81FC0186
:101D9000848D8823C9F189819A81FC01268137814C
:101DA00089819A81FC01848D882F90E0280F391F4A
:101DB00089819A81FC013783268389819A81FC017C
:101DC0002681378189819A81FC018281938128173C
:101DD000390750F089819A81FC0120813181898104
:101DE0009A81FC013783268389819A81FC01848D45
:101DF000482F50E089819A81FC01268137818B81AF
:101E00009C81B9010E949B200F900F900F900F9022
:101E1000DF91CF910895CF93DF9300D0CDB7DEB798
:101E20009A8389830FB6F8940F921BC089819A8197
:101E3000FC018189882351F089819A8141960E9411
:101E40002314882321F00E941E1501C010C089812F
:101E50009A81FC01868D2FEF280F89819A81FC01E0
:101E6000268F89819A81FC01868D1816FCF2898162
:101E70009A812FEFFC01268F0F900FBE0FB6F894BA
:101E80000F921BC089819A81FC0180858823A1F073
:101E900089819A8108960E942314882311F00E9458
:101EA0001E1589819A81FC01858D2FEF280F89816C
:101EB0009A81FC01258F01C006C089819A81FC01AD
:101EC000858D1816FCF289819A812FEFFC01258FF0
:101ED0000F900FBE0F900F90DF91CF910895CF9389
:101EE000DF9300D01F92CDB7DEB79B838A830FB6F6
:101EF000F8940F928A819B81FC01828D882319F4CA
:101F000081E0898301C019820F900FBE89810F90F3
:101F10000F900F90DF91CF910895CF93DF9300D072
:101F20001F92CDB7DEB79B838A830FB6F8940F92CA
:101F30008A819B81FC01228D8A819B81FC01838D9A
:101F4000281719F481E0898301C019820F900FBE10
:101F500089810F900F900F90DF91CF910895CF93CB
:101F6000DF9300D000D000D0CDB7DEB79C838B8349
:101F70007E836D838B819C819A8389830FB6F894CD
:101F80000F9289819A81FC01858D8F3F21F489818F
:101F90009A81FC01158E89819A81FC01868D8F3F83
:101FA00021F489819A81FC01168E0F900FBE8981E0
:101FB0009A81FC01828D882341F489819A8141961E
:101FC0002D813E81B9010E94EE1389819A810E9480
:101FD0000B0F26960FB6F894DEBF0FBECDBFDF9174
:101FE000CF910895AF92BF92CF92DF92EF92FF927E
:101FF0000F931F93CF93DF93CDB7DEB764970FB6E0
:10200000F894DEBF0FBECDBF9F838E83798768872C
:102010005B874A873D872C870E87F88AEF86DA8AA6
:10202000C98ABC8AAB8A29893A898A859B85B90184
:102030000E947C169B838A838A819B81009709F486
:1020400091C08A819B81FC012789308D8A859B857F
:102050000197820F931F9D838C834A855B852B8913
:102060003C89688579858A819B818A014E850E9499
:1020700038154C855D852E813F818C819D81B9010C
:102080000E94BE079C018A819B81FC0131832083D1
:102090008F859889009739F08F8598892A813B81AF
:1020A000FC01318320830FB6F8940F9280911E07B4
:1020B0008F5F80931E078091C6069091C706009798
:1020C00069F48A819B819093C7068093C6068091AC
:1020D0001E078130B1F40E94B11513C08091220710
:1020E000882379F48091C6069091C706FC019689F1
:1020F0008E85891730F08A819B819093C7068093E3
:10210000C606809126078F5F809326078A819B8170
:10211000FC01968980912107891730F48A819B817F
:10212000FC018689809321078A819B81AC014E5FE7
:102130005F4F8A819B81FC018689282F30E0C9018D
:10214000880F991F880F991F880F991F820F931F5F
:102150008853994FBA010E943E0681E089830F900F
:102160000FBE02C08FEF89838981813079F480911D
:102170002207882359F08091C6069091C706FC017A
:1021800096898E85981710F40E949C09898164961F
:102190000FB6F894DEBF0FBECDBFDF91CF911F9178
:1021A0000F91FF90EF90DF90CF90BF90AF90089588
:1021B000CF93DF93CDB7DEB72A970FB6F894DEBF83
:1021C0000FBECDBF98878F837A87698719820E9457
:1021D000921180911F07909120079B838A838F81A2
:1021E0009885FC012081318189859A85820F931F12
:1021F0009D838C838F819885FC01208131818A8128
:102200009B8182179307A0F48F819885FC01208120
:1022100031818C819D8182179307E8F42C813D8167
:102220008A819B8182179307B0F481E0898313C070
:102230008F819885FC01208131818C819D8182175D
:10224000930738F02C813D818A819B818217930707
:1022500010F481E089838F8198852C813D81FC0178
:10226000318320838981882359F08091C60690911B
:10227000C70602960E9405078C819D810E94321636
:102280000E949E118E838E81882311F40E949C09E6
:102290002A960FB6F894DEBF0FBECDBFDF91CF9167
:1022A0000895AF92BF92CF92DF92EF92FF920F9379
:1022B000CF93DF931F92CDB7DEB7A12CB12CC12CE9
:1022C000D12CE12CF12C00E020E030E045E550E09D
:1022D0006DE171E088E295E10E94F20F89838981C6
:1022E000813019F40E94821789838981813079F4C1
:1022F000F89481E0809322071092200710921F0724
:102300000E946709882319F081E0809322070F90CB
:10231000DF91CF910F91FF90EF90DF90CF90BF9022
:10232000AF900895CF93DF93CDB7DEB780912707A5
:102330008F5F80932707DF91CF910895CF93DF932D
:1023400000D01F92CDB7DEB719820FB6F8940F9266
:102350008091270781508093270780912707882342
:1023600009F071C080911E07882309F46CC049C030
:102370008091070790910807FC01868197819B83D4
:102380008A838A819B810C960E9405078A819B81A2
:1023900002960E9405078A819B81FC0196898091A3
:1023A0002107891730F48A819B81FC0186898093FB
:1023B00021078A819B81AC014E5F5F4F8A819B819F
:1023C000FC018689282F30E0C901880F991F880FEA
:1023D000991F880F991F820F931F8853994FBA0135
:1023E0000E943E068A819B81FC0126898091C60657
:1023F0009091C706FC018689281718F081E0809328
:10240000240780910207882309F0B2CF8091230727
:10241000882389F00CC00E944312882319F081E0C0
:102420008093240780912307815080932307809114
:102430002307882381F780912407813021F481E0EC
:1024400089830E949C090F900FBE89810F900F9085
:102450000F90DF91CF910895CF93DF9300D0CDB748
:10246000DEB70FB6F8940F9280911F079091200766
:102470009A8389830F900FBE89819A810F900F9064
:10248000DF91CF910895CF93DF93CDB7DEB7299732
:102490000FB6F894DEBF0FBECDBF1982809127071B
:1024A000882309F0CFC080911F07909120070196E3
:1024B0009093200780931F0780911F07909120071A
:1024C0009B838A838A819B810097D9F48091FE0641
:1024D0009091FF069D838C83809100079091010766
:1024E0009093FF068093FE068C819D819093010757
:1024F00080930007809125078F5F809325070E94B6
:102500003B1780911201909113012A813B8128177A
:10251000390708F477C08091FE069091FF06FC0110
:102520008081882339F48FEF9FEF9093130180937C
:10253000120168C08091FE069091FF06FC01858122
:102540009681FC01868197819F838E838E819F81F6
:10255000FC0182819381998788872A813B818885C4
:1025600099852817390738F4888599859093130140
:102570008093120147C08E819F8102960E940507B9
:102580008E819F81FC0184899589009729F08E8135
:102590009F810C960E9405078E819F81FC01968980
:1025A00080912107891730F48E819F81FC018689F3
:1025B000809321078E819F81AC014E5F5F4F8E819A
:1025C0009F81FC018689282F30E0C901880F991F5F
:1025D000880F991F880F991F820F931F8853994F57
:1025E000BA010E943E068E819F81FC01268980915E
:1025F000C6069091C706FC018689281710F081E075
:10260000898389CF8091C6069091C706FC0186898F
:10261000282F30E0C901880F991F880F991F880F54
:10262000991F820F931F8853994FFC01808182303C
:1026300010F081E0898380912307882351F40E9460
:10264000E80507C0809123078F5F809323070E94CE
:10265000E80580912407882311F081E0898389812E
:1026600029960FB6F894DEBF0FBECDBFDF91CF9194
:102670000895CF93DF9300D0CDB7DEB780912707C1
:10268000882321F081E0809324075DC01092240705
:1026900005C08091210781508093210780912107F7
:1026A000282F30E0C901880F991F880F991F880FC4
:1026B000991F820F931F8853994FFC0180818823B3
:1026C00041F380912107282F30E0C901880F991F1D
:1026D000880F991F880F991F820F931F8853994F56
:1026E0009A83898389819A81FC0181819281FC018D
:1026F0002281338189819A81FC01328321838981FE
:102700009A81FC012181328189819A81039628175F
:10271000390769F489819A81FC0181819281FC01E8
:102720002281338189819A81FC01328321838981CD
:102730009A81FC0181819281FC018681978190932D
:10274000C7068093C6060F900F90DF91CF91089532
:10275000CF93DF9300D000D000D0CDB7DEB79C83FD
:102760008B837E836D838091C6069091C7069C0102
:10277000245F3F4F8B819C81B9010E948C06809120
:10278000C6069091C70602960E9405078D819E811C
:102790008F3F2FEF920759F48091C6069091C7069C
:1027A0000296BC0185E197E00E943E060EC0209192
:1027B0001F07309120078D819E81820F931F9A837E
:1027C000898389819A810E94321626960FB6F894E1
:1027D000DEBF0FBECDBFDF91CF910895CF93DF93C2
:1027E00000D000D000D0CDB7DEB79C838B837E8332
:1027F0006D838091C6069091C7069C01245F3F4F70
:102800008B819C81B9010E943E068091C606909101
:10281000C70602960E94050720911F0730912007E6
:102820008D819E81820F931F9A83898389819A81EA
:102830000E94321626960FB6F894DEBF0FBECDBFAB
:10284000DF91CF910895CF93DF9300D000D01F92F6
:10285000CDB7DEB79D838C838C819D81FC01858102
:102860009681FC01868197819B838A838A819B81E3
:102870000C960E94050780912707882369F58A81B5
:102880009B8102960E9405078A819B81FC019689A3
:1028900080912107891730F48A819B81FC01868908
:1028A000809321078A819B81AC014E5F5F4F8A81B3
:1028B0009B81FC018689282F30E0C901880F991F70
:1028C000880F991F880F991F820F931F8853994F64
:1028D000BA010E943E0608C08A819B810C96BC0109
:1028E00082E097E00E943E068A819B81FC01268956
:1028F0008091C6069091C706FC018689821730F444
:1029000081E0898381E08093240701C01982898155
:102910000F900F900F900F900F90DF91CF9108952F
:10292000CF93DF9300D0CDB7DEB79A838983209110
:10293000250789819A81FC01208320911F0730910E
:10294000200789819A81FC01328321830F900F90A7
:10295000DF91CF910895CF93DF93CDB7DEB727975F
:102960000FB6F894DEBF0FBECDBF9D838C837F83EF
:102970006E830FB6F8940F9280911F0790912007F5
:102980009B838A838E819F81FC01808191818F3F0F
:10299000FFEF9F0711F4198245C08C819D81FC01D6
:1029A000908180912507981769F08C819D81FC01A9
:1029B000218132818A819B818217930718F081E0FF
:1029C000898330C08C819D81FC01818192812A8123
:1029D0003B81281B390B8E819F81FC018081918175
:1029E00028173907E8F48E819F81FC01208131810D
:1029F0008C819D81FC01418152818A819B81BA0138
:102A0000681B790BCB01280F391F8E819F81FC0138
:102A1000318320838C819D810E949014198202C091
:102A200081E089830F900FBE898127960FB6F894B5
:102A3000DEBF0FBECDBFDF91CF910895CF93DF935F
:102A4000CDB7DEB781E080932407DF91CF91089561
:102A5000CF93DF9300D0CDB7DEB79A8389830E94EE
:102A6000F2158091C806823010F00E949C09F7CFC1
:102A70000F931F93CF93DF93CDB7DEB72A970FB68F
:102A8000F894DEBF0FBECDBF9B838A837D836C83AA
:102A90004E8338872F831A870987198222C089813C
:102AA000882F90E02981222F30E04C815D81240F16
:102AB000351FF90140812A813B81820F931F49967E
:102AC000FC0140838981882F90E02C813D81820F19
:102AD000931FFC018081882309F406C089818F5FE0
:102AE000898389818430D8F28A819B81FC01148E8C
:102AF0008E81843010F083E08E838A819B812E81C9
:102B0000FC01268B8A819B8102960E942D068A8178
:102B10009B810C960E942D068A819B812A813B8194
:102B2000FC01318720878E81882F90E024E030E0FF
:102B3000281B390B8A819B81FC01358724878A8178
:102B40009B812A813B81FC01338B228B2A960FB615
:102B5000F894DEBF0FBECDBFDF91CF911F910F91D3
:102B60000895CF93DF931F92CDB7DEB7198213C0BC
:102B70008981282F30E0C901880F991F880F991F7C
:102B8000880F991F820F931F8853994F0E94F80551
:102B900089818F5F89838981843050F38CEE96E040
:102BA0000E94F80585EF96E00E94F80582E097E024
:102BB0000E94F8058BE097E00E94F80585E197E018
:102BC0000E94F8058CEE96E09093FF068093FE0637
:102BD00085EF96E090930107809300070F90DF91B7
:102BE000CF910895CF93DF9300D01F92CDB7DEB77A
:102BF0002FC00E94921190910B0781E0992309F058
:102C000080E089830E949E118981882309F50FB68F
:102C1000F8940F928091100790911107FC01868122
:102C200097819B838A838A819B8102960E940507F4
:102C300080911E07815080931E0780911407815058
:102C4000809314070F900FBE8A819B810E942417E6
:102C500080911407882369F60F900F900F90DF91F1
:102C6000CF910895CF93DF9300D0CDB7DEB79A838D
:102C700089838091C6069091C70629813A81FC011B
:102C80003383228380911F079091200729813A8105
:102C90002817390778F48091C6069091C7069C01E1
:102CA0002E5F3F4F8091000790910107B9010E946C
:102CB0008C061DC08091C6069091C7069C012E5FB0
:102CC0003F4F8091FE069091FF06B9010E948C064D
:102CD000809112019091130129813A8128173907B7
:102CE00030F489819A8190931301809312010F909F
:102CF0000F90DF91CF910895CF93DF9300D000D054
:102D000000D0CDB7DEB79C838B837E836D838DE14E
:102D100090E00E945C079A83898389819A81009759
:102D200051F18D819E81009729F48B819C810E94B5
:102D30005C0702C08D819E8129813A81F901908FC3
:102D4000878B89819A81FC018789908D009739F45E
:102D500089819A810E94B2071A8219820CC08981E6
:102D60009A81FC018789908D2B813C81A90165EABC
:102D700070E00E94A42089819A8126960FB6F8946B
:102D8000DEBF0FBECDBFDF91CF910895CF93DF930C
:102D900000D000D000D0CDB7DEB79E838D831982DE
:102DA0001A821B821C8210C08D819E8101969E8397
:102DB0008D8389819A81AB81BC810196A11DB11D52
:102DC00089839A83AB83BC838D819E81FC01808142
:102DD000853A51F389819A8126960FB6F894DEBF21
:102DE0000FBECDBFDF91CF910895CF93DF93CDB7C5
:102DF000DEB727970FB6F894DEBF0FBECDBF9F8317
:102E00008E838E819F81009729F48091C6069091D0
:102E1000C70602C08E819F819A83898389819A81A6
:102E2000FC018789908D9C838B838B819C810E9480
:102E3000C6168D838D8127960FB6F894DEBF0FBE20
:102E4000CDBFDF91CF910895CF93DF9300D0CDB761
:102E5000DEB79A83898389819A81FC018789908D65
:102E60000E94B20789819A810E94B2070F900F9049
:102E7000DF91CF910895CF93DF9300D0CDB7DEB728
:102E80008091FE069091FF06FC018081882339F431
:102E90008FEF9FEF909313018093120115C08091E3
:102EA000FE069091FF06FC0185819681FC018681DA
:102EB00097819A83898389819A81FC018281938198
:102EC00090931301809312010F900F90DF91CF9197
:102ED0000895CF93DF931F92CDB7DEB7809122077D
:102EE000882319F481E0898308C08091270788230B
:102EF00019F482E0898301C0198289810F90DF91E2
:102F0000CF910895AF92BF92CF92DF92EF92FF924E
:102F10000F93CF93DF931F92CDB7DEB719820E9434
:102F2000F01A80913E0790913F07009791F0A12CF5
:102F3000B12CC12CD12CE12CF12C03E020E030E0AD
:102F40004AEA50E062E271E082E798E10E94F20F03
:102F5000898389810F90DF91CF910F91FF90EF903E
:102F6000DF90CF90BF90AF9008950F931F93CF93B2
:102F7000DF93CDB7DEB72F970FB6F894DEBF0FBE45
:102F8000CDBF98878F8369875B874A873D872C876A
:102F90001F870E87198280913E0790913F07009707
:102FA000D1F189858A838A859B859C838B838F81D8
:102FB00098859E838D838985863004F50E946917E4
:102FC000823071F480913E0790913F074E855F8576
:102FD000BE016E5F7F4F20E00E94AE0B89831BC055
:102FE00080913E0790913F07BE016E5F7F4F20E0CA
:102FF00040E050E00E94AE0B89830DC080913E07F7
:1030000090913F074C855D85BE016E5F7F4F20E04C
:103010000E94600C898389812F960FB6F894DEBFD9
:103020000FBECDBFDF91CF911F910F9108950F93E8
:103030001F93CF93DF93CDB7DEB727970FB6F894E2
:10304000DEBF0FBECDBF9D838C837F836E83809157
:103050003A0790913B07FC0185819681FC018681AE
:1030600097819A83898389819A8102960E940507B4
:1030700089819A81FC018685813001F589819A8157
:10308000FC01248535858C819D81B901680F791FEC
:103090002C813D814E815F8189819A810E943719FF
:1030A000813061F44C815D8189819A8100E010E07A
:1030B00020E030E060E00E94B5178B8389819A811F
:1030C000FC012189328989819A81F9010995279624
:1030D0000FB6F894DEBF0FBECDBFDF91CF911F9129
:1030E0000F910895CF93DF9300D000D01F92CDB7FA
:1030F000DEB79D838C83CE0103960E94D2189A83FB
:1031000089832B8189819A81622F0E948A180E946B
:10311000A419F1CFCF93DF9300D000D000D0CDB76A
:10312000DEB79D838C836E830E949211CE0103963D
:103130000E9407199A8389838B81882341F58E81A8
:10314000882389F42C813D8189819A818217930794
:1031500050F00E949E1129813A818C819D81B90194
:103160000E94171816C02C813D8189819A81281BE5
:10317000390B80913E0790913F07B9010E94AF0F34
:103180000E949E11882329F40E949C0902C00E947B
:103190009E1126960FB6F894DEBF0FBECDBFDF910D
:1031A000CF910895CF93DF9300D000D0CDB7DEB795
:1031B0009C838B8380913A0790913B07FC0190811F
:1031C00081E0992309F080E0282F8B819C81FC010C
:1031D00020838B819C81FC018081882369F480910C
:1031E0003A0790913B07FC0185819681FC01808123
:1031F00091819A83898302C01A82198289819A8176
:103200000F900F900F900F90DF91CF910895CF9373
:10321000DF9300D000D0CDB7DEB79C838B830E94B4
:103220002C129A83898380914007909141072981CC
:103230003A812817390740F40E94561A8B819C81E5
:1032400021E0FC01208304C08B819C81FC01108261
:1032500089819A81909341078093400789819A815F
:103260000F900F900F900F90DF91CF910895CF9313
:10327000DF93CDB7DEB729970FB6F894DEBF0FBE48
:10328000CDBF9B838A837D836C835F834E83398725
:10329000288719828A819B812C813D81FC0133839F
:1032A00022838A819B812A813B81FC01318720878F
:1032B0002C813D818E819F8182179307F0F02E81B2
:1032C0003F8188859985281B390B8A819B81FC0168
:1032D000848595852817390718F081E089832AC0ED
:1032E0008A819B819C012E5F3F4F80913C0790918A
:1032F0003D07B9010E948C061DC02E813F81888543
:1033000099852817390750F42C813D818885998546
:103310002817390718F081E089830CC08A819B81C6
:103320009C012E5F3F4F80913A0790913B07B90176
:103330000E948C06898129960FB6F894DEBF0FBED5
:10334000CDBFDF91CF9108950F931F93CF93DF935C
:10335000CDB7DEB72B970FB6F894DEBF0FBECDBF4B
:103360008BC08E8188230CF487C089859A859A83C7
:10337000898389819A81FC0182859385009729F050
:1033800089819A8102960E940507CE010B960E94C0
:1033900007199C838B838E81992787FD9095AA2797
:1033A00097FDA095BA2F40E050E029E030E0841B63
:1033B000950B2817390708F45CC08C5C9F4FFC0103
:1033C0000C9495202F8138854F81588589819A8169
:1033D000FC0184859585BA01680F791F4B815C815A
:1033E00089819A810E943719813019F589819A81E2
:1033F000FC012189328989819A81F90109958981A4
:103400009A81FC0186858130A1F42F8138858981DC
:103410009A81FC0184859585A901480F591F8981EE
:103420009A8100E010E020E030E060E00E94B517F3
:103430008D8322C02F81388589819A81FC0135874F
:10344000248789819A81FC01248535858B819C8123
:10345000B901680F791F2B813C814B815C81898187
:103460009A810E94371908C089819A810E94B20707
:1034700003C0000001C0000080913E0790913F070B
:10348000BE016A5F7F4F20E040E050E00E94CB0C1D
:10349000882309F066CF2B960FB6F894DEBF0FBED7
:1034A000CDBFDF91CF911F910F9108950F931F937F
:1034B000CF93DF93CDB7DEB729970FB6F894DEBF71
:1034C0000FBECDBF65C080913A0790913B07FC01CC
:1034D00085819681FC01808191819A838983809185
:1034E0003A0790913B07FC0185819681FC0186811A
:1034F00097819C838B838B819C8102960E94050718
:103500008B819C81FC01218932898B819C81F9010D
:1035100009958B819C81FC0186858130C9F58B8161
:103520009C81FC012485358589819A81820F931FB6
:103530009E838D832D813E8189819A818217930795
:10354000D8F48B819C812D813E81FC0133832283C1
:103550008B819C812B813C81FC01318720878B8171
:103560009C819C012E5F3F4F80913A0790913B07D1
:10357000B9010E948C060CC049815A818B819C81C3
:1035800000E010E020E030E060E00E94B5178F839B
:1035900080913A0790913B07FC018081882309F0D4
:1035A00092CF80913A0790913B07998788878091C5
:1035B0003C0790913D0790933B0780933A0788859D
:1035C000998590933D0780933C0729960FB6F89410
:1035D000DEBF0FBECDBFDF91CF911F910F91089538
:1035E000CF93DF93CDB7DEB70FB6F8940F928091EB
:1035F0003E0790913F070097E9F488E297E00E9428
:10360000F80581E397E00E94F80588E297E090933F
:103610003B0780933A0781E397E090933D078093BF
:103620003C0740E065E083E00E944D0B90933F072C
:1036300080933E070F900FBEDF91CF910895CF93F7
:10364000DF93CDB7DEB71092420787E290E02FE319
:10365000FC01208388E290E027E0FC0120838AE2DD
:1036600090E02CE1FC01208384E290E0FC011082D8
:1036700085E290E0FC011082DF91CF910895CF9315
:10368000DF9300D0CDB7DEB78A838A81883050F5CA
:103690008A81282F30E081E090E002C0880F991FD6
:1036A0002A95E2F789830E949211909142078981BD
:1036B0008923882349F08981982F9095809142072A
:1036C00089238093420706C0909142078981892B04
:1036D000809342078BE290E020914207FC01208317
:1036E0000E949E110F900F90DF91CF910895AF929D
:1036F000BF92CF92DF92EF92FF920F93CF93DF931F
:1037000000D000D000D0CDB7DEB789834A835B8379
:103710006C837D832E838A819B81AC81BD8144E053
:10372000BC01CD010E945A04A12CB12CC12CD12C7A
:103730000F2EFAE6EF2EF7E0FF2EF02D098120E0A4
:1037400030E04AEA50E06AE271E089EB9BE10E94D6
:10375000F20F26960FB6F894DEBF0FBECDBFDF91F5
:10376000CF910F91FF90EF90DF90CF90BF90AF90EF
:103770000895CF92DF92EF92FF92CF93DF9300D024
:103780001F92CDB7DEB79B838A83809143079091C8
:1037900044074FEF5FEF9E012F5F3F4FB9010E943B
:1037A000D604882309F4E4C180910C01873008F025
:1037B000D5C180910C01882309F4D0C18981823759
:1037C00019F08981823509F5809114018E3451F404
:1037D00082E780931401109263071092620710929F
:1037E000610712C080911401833771F483E58093DF
:1037F000140184EB90E0FC018081809363071092B8
:1038000062071092610780C07FC08981833721F0F1
:103810008981833509F078C080911401823509F0DF
:1038200052C083E78093140180910D01882F90E0AE
:10383000A0E0B0E0BC01CD010E945A1FDC01CB0129
:103840008093510790935207A0935307B093540766
:1038500080910D01882F90E0AA2797FDA095BA2F9F
:10386000BC01CD010E945C1F6B017C0180910F01A6
:10387000882F90E0AA2797FDA095BA2FBC01CD0113
:103880000E945C1FDC01CB0120E030E048EC52E4F8
:10389000BC01CD010E941020DC01CB019C01AD01D7
:1038A000C701B6010E94C61EDC01CB0180935D07F3
:1038B00090935E07A0935F07B09360071092620732
:1038C0001092610721C0809114018237E9F485E4E8
:1038D0008093140184EB90E0FC018081882F90E0BC
:1038E000A0E0B0E0BC01CD010E945A1FDC01CB0179
:1038F0008093510790935207A0935307B0935407B6
:1039000010926207109261078981803519F40E9434
:10391000B91D23C189818F3419F40E940B1E1DC16A
:103920008981863209F0C0C0809114018E3409F07B
:1039300014C180914307909144074FEF5FEF9E01C0
:103940002F5F3F4FB9010E94D604898180930D01FA
:1039500080914307909144074FEF5FEF9E012F5FE7
:103960003F4FB9010E94D60480910D01882F90E04D
:10397000AA2797FDA095BA2FBC01CD010E945C1F1C
:103980006B017C018981992787FD9095A92FB92F1B
:10399000BC01CD010E945C1FDC01CB0120E030E0C6
:1039A00048EC52E4BC01CD010E941020DC01CB01A7
:1039B0009C01AD01C701B6010E94C61EDC01CB010E
:1039C0008093550790935607A0935707B0935807D5
:1039D000898180930E0180914307909144074FEFB6
:1039E0005FEF9E012F5F3F4FB9010E94D604809187
:1039F0000D01882F90E0AA2797FDA095BA2FBC0152
:103A0000CD010E945C1F6B017C018981992787FD94
:103A10009095A92FB92FBC01CD010E945C1FDC013C
:103A2000CB0120E030E048EC52E4BC01CD010E9423
:103A30001020DC01CB019C01AD01C701B6010E9441
:103A4000C61EDC01CB0180935D0790935E07A093B7
:103A50005F07B0936007898180930F0180914307CE
:103A6000909144074FEF5FEF9E012F5F3F4FB901E9
:103A70000E94D60489818093100180911001807486
:103A800080934901809110018F738093110180917F
:103A90001001282F809143079091440744E650E09D
:103AA000622F0E94FC0464C089818133A1F480915B
:103AB00014018E3409F051C08EEB90E090934201D6
:103AC000809341019091400181E0992309F080E0C9
:103AD000809340014DC08981823399F48091140113
:103AE0008E34D9F582E49FEF909342018093410197
:103AF0009091400181E0992309F080E0809340019A
:103B000037C08981833399F4809114018E3429F56B
:103B10008CE791E0909342018093410190914001A4
:103B200081E0992309F080E08093400121C08981E0
:103B3000843399F4809114018E3479F484E89EEFF3
:103B400090934201809341019091400181E099233B
:103B500009F080E0809340010BC00AC088E290E049
:103B600020913301FC0120838EE4809314010DCE5B
:103B70000CCECF93DF93CDB7DEB780914307909102
:103B8000440744E650E06AE20E94FC048091430747
:103B90009091440744E650E06AE20E94FC04809160
:103BA0006A0790916B070E94F516282F80914307B2
:103BB0009091440744E650E0622F0E94FC048091FB
:103BC0004507909146070E94F516282F80914307DC
:103BD0009091440744E650E0622F0E94FC048091DB
:103BE000590790915A070E94F516282F8091430794
:103BF0009091440744E650E0622F0E94FC048091BB
:103C000043079091440744E650E06AE20E94FC04B6
:103C1000DF91CF910895CF93DF93CDB7DEB7809139
:103C200043079091440744E650E066E20E94FC049A
:103C3000809143079091440744E650E066E20E9479
:103C4000FC0480910D01282F809143079091440737
:103C500044E650E0622F0E94FC0480910E01282F60
:103C6000809143079091440744E650E0622F0E9400
:103C7000FC0480910F01282F809143079091440705
:103C800044E650E0622F0E94FC0480911001282F2E
:103C9000809143079091440744E650E0622F0E94D0
:103CA000FC04809143079091440744E650E066E2AB
:103CB0000E94FC04DF91CF9108955058BB27AA279A
:103CC0000ED070C161D130F066D120F031F49F3F49
:103CD00011F41EF456C10EF4E095E7FB4CC1E92F38
:103CE00072D180F3BA17620773078407950718F03B
:103CF00071F49EF58AC10EF4E0950B2EBA2FA02D1B
:103D00000B01B90190010C01CA01A0011124FF2788
:103D1000591B99F0593F50F4503E68F11A16F04083
:103D2000A22F232F342F4427585FF3CF4695379582
:103D30002795A795F0405395C9F77EF41F16BA0B47
:103D4000620B730B840BBAF09150A1F0FF0FBB1FF5
:103D5000661F771F881FC2F70EC0BA0F621F731F3E
:103D6000841F48F4879577956795B795F7959E3F9B
:103D700008F0B3CF9395880F08F09927EE0F979529
:103D800087950895D4D008F481E008950CD00AC135
:103D900002D140F0F9D030F021F45F3F19F0EBC0D0
:103DA000511134C1EEC00FD198F39923C9F35523B3
:103DB000B1F3951B550BBB27AA276217730784071E
:103DC00038F09F5F5F4F220F331F441FAA1FA9F3D4
:103DD00033D00E2E3AF0E0E830D091505040E695C6
:103DE000001CCAF729D0FE2F27D0660F771F881F27
:103DF000BB1F261737074807AB07B0E809F0BB0B16
:103E0000802DBF01FF2793585F4F2AF09E3F510539
:103E100068F0B1C0FBC05F3FECF3983EDCF38695E1
:103E200077956795B795F7959F5FC9F7880F911DAF
:103E30009695879597F90895E1E0660F771F881F9B
:103E4000BB1F621773078407BA0720F0621B730B4E
:103E5000840BBA0BEE1F88F7E0950895BCD088F06C
:103E60009F5790F0B92F9927B751A0F0D1F0660F66
:103E7000771F881F991F1AF0BA95C9F712C0B13081
:103E800081F0C3D0B1E00895C0C0672F782F882794
:103E9000B85F39F0B93FCCF3869577956795B395C0
:103EA000D9F73EF490958095709561957F4F8F4F2F
:103EB0009F4F0895E89409C097FB3EF49095809534
:103EC000709561957F4F8F4F9F4F9923A9F0F92FE0
:103ED00096E9BB279395F695879577956795B7955E
:103EE000F111F8CFFAF4BB0F11F460FF1BC06F5F44
:103EF0007F4F8F4F9F4F16C0882311F096E911C056
:103F0000772321F09EE8872F762F05C0662371F076
:103F100096E8862F70E060E02AF09A95660F771F8A
:103F2000881FDAF7880F9695879597F90895990F66
:103F30000008550FAA0BE0E8FEEF16161706E80773
:103F4000F907C0F012161306E407F50798F0621B94
:103F5000730B840B950B39F40A2661F0232B242B69
:103F6000252B21F408950A2609F4A140A6958FEF88
:103F7000811D811D089597F99F6780E870E060E0DA
:103F800008959FEF80EC089500240A9416161706F2
:103F900018060906089500240A941216130614063A
:103FA00005060895092E0394000C11F4882352F09D
:103FB000BB0F40F4BF2B11F460FF04C06F5F7F4F55
:103FC0008F4F9F4F089557FD9058440F551F59F03C
:103FD0005F3F71F04795880F97FB991F61F09F3FF6
:103FE00079F087950895121613061406551FF2CF1F
:103FF0004695F1DF08C0161617061806991FF1CF6F
:1040000086957105610508940895E894BB27662795
:104010007727CB0197F908958ADF08F48FEF089589
:104020000BD0C0CFB1DF28F0B6DF18F0952309F030
:10403000A2CFA7CF1124EACFC6DFA0F3959FD1F37B
:10404000950F50E0551F629FF001729FBB27F00D46
:10405000B11D639FAA27F00DB11DAA1F649F66279B
:10406000B00DA11D661F829F2227B00DA11D621FEA
:10407000739FB00DA11D621F839FA00D611D221FA4
:10408000749F3327A00D611D231F849F600D211D88
:10409000822F762F6A2F11249F5750408AF0E1F02B
:1040A00088234AF0EE0FFF1FBB1F661F771F881F74
:1040B00091505040A9F79E3F510570F05CCFA6CFBC
:1040C0005F3FECF3983EDCF3869577956795B7955F
:1040D000F795E7959F5FC1F7FE2B880F911D969589
:1040E000879597F90895A1E21A2EAA1BBB1BFD0123
:1040F0000DC0AA1FBB1FEE1FFF1FA217B307E407C7
:10410000F50720F0A21BB30BE40BF50B661F771F1E
:10411000881F991F1A9469F76095709580959095FE
:104120009B01AC01BD01CF010895EE0FFF1F05906B
:10413000F491E02D0994FB01DC0102C001900D9285
:1041400041505040D8F70895DC0101C06D934150B3
:0A4150005040E0F70895F894FFCF07
:10415A00CDCC2C40BC74133C6F12833AFFFF020291
:10416A000505FFFF4E4C004D0050004E0049444CDF
:10417A004500546D722053766300520007260D25C0
:0C418A0013160B3F070B1613250D263FE4
:00000001FF
